IP4305(I) Start of job salxrf at Thu Jun 12 16:29:22 2003

IP4334(I) History filename: /apps/prod/cid1p/history/salxrf_7.hst.2003-06-12.16:29
IP0204(I) Command setij executed

salxrf(7) BEGINJOB   MA1091 (I) Thu Jun 12 16:29:22 2003 : Entering (VER. 9.2-10/05/2001)
  
 
salxrf(7) SALXRF    starting
IP4104(I) Start  SALXRF at Thu Jun 12 16:29:23 2003

NO ACCT FOR CERT 9000000MN0001025000  00019390707   0000577641 
NO ACCT FOR CERT 9000000MN0001027500  00019270217   0000585103 
 NO ACCT FOR CERT  9000000MN0001032000  00019880518   0000458062 
 NO ACCT FOR CERT  9000000MN0001032000  00019880822   0000458065 
 NO ACCT FOR CERT  9000000MN0001032000  00019880928   0000458067 
NO ACCT FOR CERT 9000000MN0001035700  00019030909   0000568659 
NO ACCT FOR CERT 9000000MN0001039400  00019881011   0000497326 
NO ACCT FOR CERT 9000000MN0001039400  00019890410   0000501464 
NO ACCT FOR CERT 9000000MN0001039400  00019890412   0000501500 
NO ACCT FOR CERT 9000000MN0001039400  00019890821   0000512899 
NO ACCT FOR CERT 9000000MN0001039400  00019900308   0000517842 
NO ACCT FOR CERT 9000000MN0001039400  00019900314   0000517851 
NO ACCT FOR CERT 9000000MN0001039400  00019900316   0000517860 
NO ACCT FOR CERT 9000000MN0001039400  00019900413   0000519454 
NO ACCT FOR CERT 9000000MN0001039400  00019900418   0000519449 
NO ACCT FOR CERT 9000000MN0001039400  00019900430   0000519477 
NO ACCT FOR CERT 9000000MN0001039400  00019900504   0000521644 
NO ACCT FOR CERT 9000000MN0001039400  00019900504   0000521645 
NO ACCT FOR CERT 9000000MN0001039400  00019900510   0000521647 
NO ACCT FOR CERT 9000000MN0001039400  00019900522   0000521654 
NO ACCT FOR CERT 9000000MN0001039400  00019900525   0000521672 
NO ACCT FOR CERT 9000000MN0001039400  00019900530   0000521687 
NO ACCT FOR CERT 9000000MN0001039400  00019900531   0000521678 
NO ACCT FOR CERT 9000000MN0001039400  00019900611   0000521685 
NO ACCT FOR CERT 9000000MN0001039400  00019900619   0000521694 
NO ACCT FOR CERT 9000000MN0001039400  00019900620   0000521690 
NO ACCT FOR CERT 9000000MN0001039400  00019900629   0000522649 
NO ACCT FOR CERT 9000000MN0001039400  00019900629   0000522652 
NO ACCT FOR CERT 9000000MN0001039400  00019900703   0000522655 
NO ACCT FOR CERT 9000000MN0001039400  00019900711   0000522654 
NO ACCT FOR CERT 9000000MN0001039400  00019900712   0000522653 
NO ACCT FOR CERT 9000000MN0001039400  00019900731   0000522675 
NO ACCT FOR CERT 9000000MN0001039400  00019900830   0000522693 
NO ACCT FOR CERT 9000000MN0001039400  00019900906   0000524138 
NO ACCT FOR CERT 9000000MN0001039400  00019900910   0000524133 
NO ACCT FOR CERT 9000000MN0001039400  00019900910   0000524135 
NO ACCT FOR CERT 9000000MN0001039400  00019900911   0000524144 
NO ACCT FOR CERT 9000000MN0001039400  00019900914   0000524152 
NO ACCT FOR CERT 9000000MN0001039400  00019900923   0000535378 
NO ACCT FOR CERT 9000000MN0001039400  00019901005   0000524177 
NO ACCT FOR CERT 9000000MN0001039400  00019901008   0000524174 
NO ACCT FOR CERT 9000000MN0001039400  00019901029   0000526847 
NO ACCT FOR CERT 9000000MN0001039400  00019901029   0000526852 
NO ACCT FOR CERT 9000000MN0001039400  00019901030   0000526837 
NO ACCT FOR CERT 9000000MN0001039400  00019901031   0000526842 
NO ACCT FOR CERT 9000000MN0001039400  00019901031   0000526844 
NO ACCT FOR CERT 9000000MN0001039400  00019901101   0000526853 
NO ACCT FOR CERT 9000000MN0001039400  00019901101   0000526854 
NO ACCT FOR CERT 9000000MN0001039400  00019901107   0000526862 
NO ACCT FOR CERT 9000000MN0001039400  00019901112   0000526865 
NO ACCT FOR CERT 9000000MN0001039400  00019901119   0000526873 
NO ACCT FOR CERT 9000000MN0001039400  00019901127   0000527869 
NO ACCT FOR CERT 9000000MN0001039400  00019901129   0000527876 
NO ACCT FOR CERT 9000000MN0001039400  00019901129   0000527877 
NO ACCT FOR CERT 9000000MN0001039400  00019901210   0000527888 
NO ACCT FOR CERT 9000000MN0001039400  00019901217   0000527902 
NO ACCT FOR CERT 9000000MN0001039400  00019901224   0000527907 
NO ACCT FOR CERT 9000000MN0001039400  00019901227   0000527911 
NO ACCT FOR CERT 9000000MN0001039400  00019910103   0000527916 
NO ACCT FOR CERT 9000000MN0001039400  00019910114   0000529306 
NO ACCT FOR CERT 9000000MN0001039400  00019910117   0000529276 
NO ACCT FOR CERT 9000000MN0001039400  00019910122   0000529287 
NO ACCT FOR CERT 9000000MN0001039400  00019910124   0000529297 
NO ACCT FOR CERT 9000000MN0001039400  00019910128   0000529291 
NO ACCT FOR CERT 9000000MN0001039400  00019910131   0000529292 
NO ACCT FOR CERT 9000000MN0001039400  00019910131   0000529309 
NO ACCT FOR CERT 9000000MN0001039400  00019910205   0000529299 
NO ACCT FOR CERT 9000000MN0001039400  00019910215   0000529312 
NO ACCT FOR CERT 9000000MN0001039400  00019910218   0000529319 
NO ACCT FOR CERT 9000000MN0001039400  00019910226   0000529325 
NO ACCT FOR CERT 9000000MN0001039400  00019910304   0000529327 
NO ACCT FOR CERT 9000000MN0001039400  00019910304   0000529332 
NO ACCT FOR CERT 9000000MN0001039400  00019910308   0000530154 
NO ACCT FOR CERT 9000000MN0001039400  00019910314   0000530151 
NO ACCT FOR CERT 9000000MN0001039400  00019910315   0000530159 
NO ACCT FOR CERT 9000000MN0001039400  00019910319   0000530160 
NO ACCT FOR CERT 9000000MN0001039400  00019910403   0000530180 
NO ACCT FOR CERT 9000000MN0001039400  00019910403   0000530190 
NO ACCT FOR CERT 9000000MN0001039400  00019910403   0000530195 
NO ACCT FOR CERT 9000000MN0001039400  00019910405   0000530189 
NO ACCT FOR CERT 9000000MN0001039400  00019910416   0000530197 
NO ACCT FOR CERT 9000000MN0001039400  00019910418   0000531633 
NO ACCT FOR CERT 9000000MN0001039400  00019910419   0000531644 
NO ACCT FOR CERT 9000000MN0001039400  00019910501   0000531635 
NO ACCT FOR CERT 9000000MN0001039400  00019910501   0000531636 
NO ACCT FOR CERT 9000000MN0001039400  00019910502   0000531640 
NO ACCT FOR CERT 9000000MN0001039400  00019910506   0000531652 
NO ACCT FOR CERT 9000000MN0001039400  00019910509   0000531658 
NO ACCT FOR CERT 9000000MN0001039400  00019910510   0000531677 
NO ACCT FOR CERT 9000000MN0001039400  00019910514   0000531659 
NO ACCT FOR CERT 9000000MN0001039400  00019910515   0000531656 
NO ACCT FOR CERT 9000000MN0001039400  00019910520   0000531680 
NO ACCT FOR CERT 9000000MN0001039400  00019910523   0000531686 
NO ACCT FOR CERT 9000000MN0001039400  00019910529   0000531692 
NO ACCT FOR CERT 9000000MN0001039400  00019910603   0000531699 
NO ACCT FOR CERT 9000000MN0001039400  00019910604   0000531700 
NO ACCT FOR CERT 9000000MN0001039400  00019910606   0000531703 
NO ACCT FOR CERT 9000000MN0001039400  00019910610   0000531704 
NO ACCT FOR CERT 9000000MN0001039400  00019910612   0000533628 
NO ACCT FOR CERT 9000000MN0001039400  00019910617   0000533631 
NO ACCT FOR CERT 9000000MN0001039400  00019910617   0000533632 
NO ACCT FOR CERT 9000000MN0001039400  00019910618   0000533641 
NO ACCT FOR CERT 9000000MN0001039400  00019910619   0000533640 
NO ACCT FOR CERT 9000000MN0001039400  00019910625   0000533654 
NO ACCT FOR CERT 9000000MN0001039400  00019910628   0000533653 
NO ACCT FOR CERT 9000000MN0001039400  00019910703   0000533660 
NO ACCT FOR CERT 9000000MN0001039400  00019910709   0000533659 
NO ACCT FOR CERT 9000000MN0001039400  00019910718   0000533662 
NO ACCT FOR CERT 9000000MN0001039400  00019910722   0000533668 
NO ACCT FOR CERT 9000000MN0001039400  00019910723   0000533671 
NO ACCT FOR CERT 9000000MN0001039400  00019910724   0000533676 
NO ACCT FOR CERT 9000000MN0001039400  00019910726   0000533681 
NO ACCT FOR CERT 9000000MN0001039400  00019910729   0000533678 
NO ACCT FOR CERT 9000000MN0001039400  00019910802   0000533684 
NO ACCT FOR CERT 9000000MN0001039400  00019910805   0000533683 
NO ACCT FOR CERT 9000000MN0001039400  00019910808   0000535332 
NO ACCT FOR CERT 9000000MN0001039400  00019910813   0000535339 
NO ACCT FOR CERT 9000000MN0001039400  00019910814   0000535340 
NO ACCT FOR CERT 9000000MN0001039400  00019910819   0000535346 
NO ACCT FOR CERT 9000000MN0001039400  00019910819   0000535347 
NO ACCT FOR CERT 9000000MN0001039400  00019910820   0000535345 
NO ACCT FOR CERT 9000000MN0001039400  00019910822   0000535348 
NO ACCT FOR CERT 9000000MN0001039400  00019910827   0000535350 
NO ACCT FOR CERT 9000000MN0001039400  00019910827   0000535353 
NO ACCT FOR CERT 9000000MN0001039400  00019910903   0000535357 
NO ACCT FOR CERT 9000000MN0001039400  00019910909   0000535364 
NO ACCT FOR CERT 9000000MN0001039400  00019910910   0000535379 
NO ACCT FOR CERT 9000000MN0001039400  00019910911   0000535361 
NO ACCT FOR CERT 9000000MN0001039400  00019910911   0000535362 
NO ACCT FOR CERT 9000000MN0001039400  00019910916   0000535368 
NO ACCT FOR CERT 9000000MN0001039400  00019910916   0000535369 
NO ACCT FOR CERT 9000000MN0001039400  00019910918   0000535371 
NO ACCT FOR CERT 9000000MN0001039400  00019910919   0000535372 
NO ACCT FOR CERT 9000000MN0001039400  00019910926   0000535382 
NO ACCT FOR CERT 9000000MN0001039400  00019911001   0000535385 
NO ACCT FOR CERT 9000000MN0001039400  00019911001   0000537200 
NO ACCT FOR CERT 9000000MN0001039400  00019911002   0000535383 
NO ACCT FOR CERT 9000000MN0001039400  00019911004   0000537197 
NO ACCT FOR CERT 9000000MN0001039400  00019911007   0000537191 
NO ACCT FOR CERT 9000000MN0001039400  00019911007   0000537192 
NO ACCT FOR CERT 9000000MN0001039400  00019911007   0000537193 
NO ACCT FOR CERT 9000000MN0001039400  00019911008   0000537194 
NO ACCT FOR CERT 9000000MN0001039400  00019911009   0000537195 
NO ACCT FOR CERT 9000000MN0001039400  00019911010   0000537198 
NO ACCT FOR CERT 9000000MN0001039400  00019911011   0000537207 
NO ACCT FOR CERT 9000000MN0001039400  00019911014   0000537205 
NO ACCT FOR CERT 9000000MN0001039400  00019911015   0000537203 
NO ACCT FOR CERT 9000000MN0001039400  00019911018   0000537210 
NO ACCT FOR CERT 9000000MN0001039400  00019911025   0000537213 
NO ACCT FOR CERT 9000000MN0001039400  00019911028   0000537214 
NO ACCT FOR CERT 9000000MN0001039400  00019911030   0000537211 
NO ACCT FOR CERT 9000000MN0001039400  00019911030   0000537212 
NO ACCT FOR CERT 9000000MN0001039400  00019911030   0000537216 
NO ACCT FOR CERT 9000000MN0001039400  00019911031   0000537217 
NO ACCT FOR CERT 9000000MN0001039400  00019911104   0000537218 
NO ACCT FOR CERT 9000000MN0001039400  00019911104   0000537219 
NO ACCT FOR CERT 9000000MN0001039400  00019911106   0000537220 
NO ACCT FOR CERT 9000000MN0001039400  00019911107   0000537223 
NO ACCT FOR CERT 9000000MN0001039400  00019911112   0000537225 
NO ACCT FOR CERT 9000000MN0001039400  00019911113   0000537224 
NO ACCT FOR CERT 9000000MN0001039400  00019911115   0000537226 
NO ACCT FOR CERT 9000000MN0001039400  00019911118   0000537228 
NO ACCT FOR CERT 9000000MN0001039400  00019911125   0000537237 
NO ACCT FOR CERT 9000000MN0001039400  00019911126   0000537238 
NO ACCT FOR CERT 9000000MN0001039400  00019911127   0000537236 
NO ACCT FOR CERT 9000000MN0001039400  00019911202   0000537241 
NO ACCT FOR CERT 9000000MN0001039400  00019911203   0000537242 
NO ACCT FOR CERT 9000000MN0001039400  00019911203   0000537244 
NO ACCT FOR CERT 9000000MN0001039400  00019911203   0000537250 
NO ACCT FOR CERT 9000000MN0001039400  00019911204   0000537245 
NO ACCT FOR CERT 9000000MN0001039400  00019911206   0000538631 
NO ACCT FOR CERT 9000000MN0001039400  00019911209   0000538634 
NO ACCT FOR CERT 9000000MN0001039400  00019911209   0000538636 
NO ACCT FOR CERT 9000000MN0001039400  00019911216   0000538644 
NO ACCT FOR CERT 9000000MN0001039400  00019911216   0000538648 
NO ACCT FOR CERT 9000000MN0001039400  00019911216   0000538649 
NO ACCT FOR CERT 9000000MN0001039400  00019911217   0000538652 
NO ACCT FOR CERT 9000000MN0001039400  00019911218   0000538653 
NO ACCT FOR CERT 9000000MN0001039400  00019911218   0000538654 
NO ACCT FOR CERT 9000000MN0001039400  00019911224   0000538657 
NO ACCT FOR CERT 9000000MN0001039400  00019911226   0000538661 
NO ACCT FOR CERT 9000000MN0001039400  00019911230   0000538663 
NO ACCT FOR CERT 9000000MN0001039400  00019911230   0000538664 
NO ACCT FOR CERT 9000000MN0001039400  00019911231   0000538665 
NO ACCT FOR CERT 9000000MN0001039400  00019920102   0000538667 
NO ACCT FOR CERT 9000000MN0001039400  00019920102   0000538668 
NO ACCT FOR CERT 9000000MN0001039400  00019920107   0000538669 
NO ACCT FOR CERT 9000000MN0001039400  00019920109   0000538677 
NO ACCT FOR CERT 9000000MN0001039400  00019920110   0000538678 
NO ACCT FOR CERT 9000000MN0001039400  00019920113   0000538675 
NO ACCT FOR CERT 9000000MN0001039400  00019920114   0000538676 
NO ACCT FOR CERT 9000000MN0001039400  00019920115   0000538681 
NO ACCT FOR CERT 9000000MN0001039400  00019920116   0000538672 
NO ACCT FOR CERT 9000000MN0001039400  00019920117   0000538682 
NO ACCT FOR CERT 9000000MN0001039400  00019920120   0000538683 
NO ACCT FOR CERT 9000000MN0001039400  00019920124   0000540551 
NO ACCT FOR CERT 9000000MN0001039400  00019920124   0000540553 
NO ACCT FOR CERT 9000000MN0001039400  00019920127   0000538689 
NO ACCT FOR CERT 9000000MN0001039400  00019920127   0000540558 
NO ACCT FOR CERT 9000000MN0001039400  00019920127   0000540559 
NO ACCT FOR CERT 9000000MN0001039400  00019920131   0000540560 
NO ACCT FOR CERT 9000000MN0001039400  00019920203   0000540563 
NO ACCT FOR CERT 9000000MN0001039400  00019920204   0000540562 
NO ACCT FOR CERT 9000000MN0001039400  00019920207   0000540570 
NO ACCT FOR CERT 9000000MN0001039400  00019920210   0000540569 
NO ACCT FOR CERT 9000000MN0001039400  00019920212   0000540571 
NO ACCT FOR CERT 9000000MN0001039400  00019920212   0000540579 
NO ACCT FOR CERT 9000000MN0001039400  00019920212   0000540580 
NO ACCT FOR CERT 9000000MN0001039400  00019920217   0000540573 
NO ACCT FOR CERT 9000000MN0001039400  00019920217   0000540574 
NO ACCT FOR CERT 9000000MN0001039400  00019920218   0000540578 
NO ACCT FOR CERT 9000000MN0001039400  00019920218   0000540586 
NO ACCT FOR CERT 9000000MN0001039400  00019920221   0000540581 
NO ACCT FOR CERT 9000000MN0001039400  00019920224   0000540582 
NO ACCT FOR CERT 9000000MN0001039400  00019920225   0000540583 
NO ACCT FOR CERT 9000000MN0001039400  00019920226   0000540584 
NO ACCT FOR CERT 9000000MN0001039400  00019920226   0000540589 
NO ACCT FOR CERT 9000000MN0001039400  00019920306   0000540593 
NO ACCT FOR CERT 9000000MN0001039400  00019920306   0000540594 
NO ACCT FOR CERT 9000000MN0001039400  00019920306   0000540601 
NO ACCT FOR CERT 9000000MN0001039400  00019920309   0000540595 
NO ACCT FOR CERT 9000000MN0001039400  00019920309   0000540596 
NO ACCT FOR CERT 9000000MN0001039400  00019920310   0000540598 
NO ACCT FOR CERT 9000000MN0001039400  00019920310   0000540599 
NO ACCT FOR CERT 9000000MN0001039400  00019920310   0000540600 
NO ACCT FOR CERT 9000000MN0001039400  00019920312   0000540603 
NO ACCT FOR CERT 9000000MN0001039400  00019920313   0000540604 
NO ACCT FOR CERT 9000000MN0001039400  00019920317   0000540608 
NO ACCT FOR CERT 9000000MN0001039400  00019920318   0000540607 
NO ACCT FOR CERT 9000000MN0001039400  00019920319   0000540609 
NO ACCT FOR CERT 9000000MN0001039400  00019920323   0000540610 
NO ACCT FOR CERT 9000000MN0001039400  00019920324   0000542260 
NO ACCT FOR CERT 9000000MN0001039400  00019920324   0000542261 
NO ACCT FOR CERT 9000000MN0001039400  00019920324   0000542262 
NO ACCT FOR CERT 9000000MN0001039400  00019920325   0000542264 
NO ACCT FOR CERT 9000000MN0001039400  00019920326   0000542265 
NO ACCT FOR CERT 9000000MN0001039400  00019920327   0000542266 
NO ACCT FOR CERT 9000000MN0001039400  00019920327   0000542267 
NO ACCT FOR CERT 9000000MN0001039400  00019920330   0000542268 
NO ACCT FOR CERT 9000000MN0001039400  00019920330   0000542274 
NO ACCT FOR CERT 9000000MN0001039400  00019920331   0000542269 
NO ACCT FOR CERT 9000000MN0001039400  00019920331   0000542270 
NO ACCT FOR CERT 9000000MN0001039400  00019920331   0000542276 
NO ACCT FOR CERT 9000000MN0001039400  00019920401   0000542272 
NO ACCT FOR CERT 9000000MN0001039400  00019920402   0000542273 
NO ACCT FOR CERT 9000000MN0001039400  00019920402   0000542275 
NO ACCT FOR CERT 9000000MN0001039400  00019920403   0000542280 
NO ACCT FOR CERT 9000000MN0001039400  00019920403   0000542281 
NO ACCT FOR CERT 9000000MN0001039400  00019920406   0000542277 
NO ACCT FOR CERT 9000000MN0001039400  00019920406   0000542283 
NO ACCT FOR CERT 9000000MN0001039400  00019920407   0000542658 
NO ACCT FOR CERT 9000000MN0001039400  00019920408   0000542284 
NO ACCT FOR CERT 9000000MN0001039400  00019920409   0000542285 
NO ACCT FOR CERT 9000000MN0001039400  00019920410   0000542286 
NO ACCT FOR CERT 9000000MN0001039400  00019920413   0000542288 
NO ACCT FOR CERT 9000000MN0001039400  00019920413   0000542651 
NO ACCT FOR CERT 9000000MN0001039400  00019920416   0000542659 
NO ACCT FOR CERT 9000000MN0001039400  00019920416   0000542660 
NO ACCT FOR CERT 9000000MN0001039400  00019920417   0000542662 
NO ACCT FOR CERT 9000000MN0001039400  00019920420   0000542663 
NO ACCT FOR CERT 9000000MN0001039400  00019920420   0000542664 
NO ACCT FOR CERT 9000000MN0001039400  00019920420   0000542665 
NO ACCT FOR CERT 9000000MN0001039400  00019920423   0000542668 
NO ACCT FOR CERT 9000000MN0001039400  00019920424   0000542670 
NO ACCT FOR CERT 9000000MN0001039400  00019920424   0000542671 
NO ACCT FOR CERT 9000000MN0001039400  00019920427   0000542672 
NO ACCT FOR CERT 9000000MN0001039400  00019920428   0000542673 
NO ACCT FOR CERT 9000000MN0001039400  00019920429   0000542687 
NO ACCT FOR CERT 9000000MN0001039400  00019920501   0000542677 
NO ACCT FOR CERT 9000000MN0001039400  00019920504   0000542678 
NO ACCT FOR CERT 9000000MN0001039400  00019920504   0000542681 
NO ACCT FOR CERT 9000000MN0001039400  00019920505   0000542679 
NO ACCT FOR CERT 9000000MN0001039400  00019920513   0000542685 
NO ACCT FOR CERT 9000000MN0001039400  00019920515   0000542689 
NO ACCT FOR CERT 9000000MN0001039400  00019920518   0000542688 
NO ACCT FOR CERT 9000000MN0001039400  00019920519   0000542691 
NO ACCT FOR CERT 9000000MN0001039400  00019920521   0000542692 
NO ACCT FOR CERT 9000000MN0001039400  00019920522   0000542693 
NO ACCT FOR CERT 9000000MN0001039400  00019920529   0000542695 
NO ACCT FOR CERT 9000000MN0001039400  00019920601   0000542694 
NO ACCT FOR CERT 9000000MN0001039400  00019920608   0000542697 
NO ACCT FOR CERT 9000000MN0001039400  00019920611   0000542696 
NO ACCT FOR CERT 9000000MN0001039400  00019920611   0000542701 
NO ACCT FOR CERT 9000000MN0001039400  00019920611   0000542702 
NO ACCT FOR CERT 9000000MN0001039400  00019920611   0000542703 
NO ACCT FOR CERT 9000000MN0001039400  00019920612   0000542698 
NO ACCT FOR CERT 9000000MN0001039400  00019920615   0000542700 
NO ACCT FOR CERT 9000000MN0001039400  00019920617   0000542699 
NO ACCT FOR CERT 9000000MN0001039400  00019920618   0000542706 
NO ACCT FOR CERT 9000000MN0001039400  00019920622   0000542707 
NO ACCT FOR CERT 9000000MN0001039400  00019920623   0000542705 
NO ACCT FOR CERT 9000000MN0001039400  00019920623   0000542709 
NO ACCT FOR CERT 9000000MN0001039400  00019920625   0000533656 
NO ACCT FOR CERT 9000000MN0001039400  00019920625   0000542704 
NO ACCT FOR CERT 9000000MN0001039400  00019920626   0000542710 
NO ACCT FOR CERT 9000000MN0001039400  00019920626   0000542711 
NO ACCT FOR CERT 9000000MN0001039400  00019920629   0000542713 
NO ACCT FOR CERT 9000000MN0001039400  00019920629   0000542714 
NO ACCT FOR CERT 9000000MN0001039400  00019920629   0000542715 
NO ACCT FOR CERT 9000000MN0001039400  00019920629   0000542716 
NO ACCT FOR CERT 9000000MN0001039400  00019920629   0000542717 
NO ACCT FOR CERT 9000000MN0001039400  00019920701   0000542718 
NO ACCT FOR CERT 9000000MN0001039400  00019920701   0000542719 
NO ACCT FOR CERT 9000000MN0001039400  00019920701   0000542721 
NO ACCT FOR CERT 9000000MN0001039400  00019920703   0000542722 
NO ACCT FOR CERT 9000000MN0001039400  00019920703   0000542723 
NO ACCT FOR CERT 9000000MN0001039400  00019920703   0000542724 
NO ACCT FOR CERT 9000000MN0001039400  00019920708   0000542728 
NO ACCT FOR CERT 9000000MN0001039400  00019920709   0000542733 
NO ACCT FOR CERT 9000000MN0001039400  00019920710   0000542735 
NO ACCT FOR CERT 9000000MN0001039400  00019920713   0000542727 
NO ACCT FOR CERT 9000000MN0001039400  00019920713   0000542732 
NO ACCT FOR CERT 9000000MN0001039400  00019920713   0000542736 
NO ACCT FOR CERT 9000000MN0001039400  00019920714   0000542737 
NO ACCT FOR CERT 9000000MN0001039400  00019920715   0000542730 
NO ACCT FOR CERT 9000000MN0001039400  00019920715   0000542738 
NO ACCT FOR CERT 9000000MN0001039400  00019920716   0000542731 
NO ACCT FOR CERT 9000000MN0001039400  00019920716   0000542739 
NO ACCT FOR CERT 9000000MN0001039400  00019920720   0000542740 
NO ACCT FOR CERT 9000000MN0001039400  00019920722   0000542741 
NO ACCT FOR CERT 9000000MN0001039400  00019920723   0000542744 
NO ACCT FOR CERT 9000000MN0001039400  00019920723   0000542750 
NO ACCT FOR CERT 9000000MN0001039400  00019920723   0000542751 
NO ACCT FOR CERT 9000000MN0001039400  00019920724   0000542743 
NO ACCT FOR CERT 9000000MN0001039400  00019920724   0000542749 
NO ACCT FOR CERT 9000000MN0001039400  00019920727   0000542747 
NO ACCT FOR CERT 9000000MN0001039400  00019920727   0000542748 
NO ACCT FOR CERT 9000000MN0001039400  00019920727   0000551858 
NO ACCT FOR CERT 9000000MN0001039400  00019920728   0000542745 
NO ACCT FOR CERT 9000000MN0001039400  00019920728   0000542746 
NO ACCT FOR CERT 9000000MN0001039400  00019920731   0000551826 
NO ACCT FOR CERT 9000000MN0001039400  00019920731   0000551827 
NO ACCT FOR CERT 9000000MN0001039400  00019920803   0000551828 
NO ACCT FOR CERT 9000000MN0001039400  00019920803   0000551829 
NO ACCT FOR CERT 9000000MN0001039400  00019920803   0000551830 
NO ACCT FOR CERT 9000000MN0001039400  00019920803   0000551831 
NO ACCT FOR CERT 9000000MN0001039400  00019920804   0000551832 
NO ACCT FOR CERT 9000000MN0001039400  00019920804   0000551833 
NO ACCT FOR CERT 9000000MN0001039400  00019920805   0000551835 
NO ACCT FOR CERT 9000000MN0001039400  00019920805   0000551836 
NO ACCT FOR CERT 9000000MN0001039400  00019920805   0000551892 
NO ACCT FOR CERT 9000000MN0001039400  00019920810   0000551837 
NO ACCT FOR CERT 9000000MN0001039400  00019920811   0000551838 
NO ACCT FOR CERT 9000000MN0001039400  00019920811   0000551839 
NO ACCT FOR CERT 9000000MN0001039400  00019920812   0000551850 
NO ACCT FOR CERT 9000000MN0001039400  00019920813   0000551840 
NO ACCT FOR CERT 9000000MN0001039400  00019920813   0000551842 
NO ACCT FOR CERT 9000000MN0001039400  00019920813   0000551843 
NO ACCT FOR CERT 9000000MN0001039400  00019920814   0000551844 
NO ACCT FOR CERT 9000000MN0001039400  00019920814   0000551845 
NO ACCT FOR CERT 9000000MN0001039400  00019920817   0000551846 
NO ACCT FOR CERT 9000000MN0001039400  00019920820   0000551847 
NO ACCT FOR CERT 9000000MN0001039400  00019920820   0000551851 
NO ACCT FOR CERT 9000000MN0001039400  00019920821   0000551852 
NO ACCT FOR CERT 9000000MN0001039400  00019920826   0000551853 
NO ACCT FOR CERT 9000000MN0001039400  00019920826   0000551857 
NO ACCT FOR CERT 9000000MN0001039400  00019920828   0000551854 
NO ACCT FOR CERT 9000000MN0001039400  00019920828   0000551861 
NO ACCT FOR CERT 9000000MN0001039400  00019920828   0000551886 
NO ACCT FOR CERT 9000000MN0001039400  00019920831   0000551849 
NO ACCT FOR CERT 9000000MN0001039400  00019920831   0000551862 
NO ACCT FOR CERT 9000000MN0001039400  00019920831   0000551865 
NO ACCT FOR CERT 9000000MN0001039400  00019920901   0000551855 
NO ACCT FOR CERT 9000000MN0001039400  00019920901   0000551856 
NO ACCT FOR CERT 9000000MN0001039400  00019920904   0000551887 
NO ACCT FOR CERT 9000000MN0001039400  00019920908   0000551867 
NO ACCT FOR CERT 9000000MN0001039400  00019920908   0000551868 
NO ACCT FOR CERT 9000000MN0001039400  00019920908   0000551869 
NO ACCT FOR CERT 9000000MN0001039400  00019920910   0000551872 
NO ACCT FOR CERT 9000000MN0001039400  00019920910   0000551876 
NO ACCT FOR CERT 9000000MN0001039400  00019920910   0000551881 
NO ACCT FOR CERT 9000000MN0001039400  00019920911   0000551875 
NO ACCT FOR CERT 9000000MN0001039400  00019920911   0000551879 
NO ACCT FOR CERT 9000000MN0001039400  00019920914   0000551877 
NO ACCT FOR CERT 9000000MN0001039400  00019920914   0000551878 
NO ACCT FOR CERT 9000000MN0001039400  00019920918   0000551873 
NO ACCT FOR CERT 9000000MN0001039400  00019920924   0000551883 
NO ACCT FOR CERT 9000000MN0001039400  00019920924   0000551884 
NO ACCT FOR CERT 9000000MN0001039400  00019920924   0000551891 
NO ACCT FOR CERT 9000000MN0001039400  00019920925   0000551882 
NO ACCT FOR CERT 9000000MN0001039400  00019920928   0000551885 
NO ACCT FOR CERT 9000000MN0001039400  00019920929   0000551890 
NO ACCT FOR CERT 9000000MN0001039400  00019920930   0000551889 
NO ACCT FOR CERT 9000000MN0001039400  00019920930   0000551894 
NO ACCT FOR CERT 9000000MN0001039400  00019921001   0000551896 
NO ACCT FOR CERT 9000000MN0001039400  00019921001   0000551913 
NO ACCT FOR CERT 9000000MN0001039400  00019921002   0000551897 
NO ACCT FOR CERT 9000000MN0001039400  00019921005   0000551898 
NO ACCT FOR CERT 9000000MN0001039400  00019921006   0000551899 
NO ACCT FOR CERT 9000000MN0001039400  00019921008   0000551893 
NO ACCT FOR CERT 9000000MN0001039400  00019921008   0000551900 
NO ACCT FOR CERT 9000000MN0001039400  00019921008   0000551901 
NO ACCT FOR CERT 9000000MN0001039400  00019921012   0000551902 
NO ACCT FOR CERT 9000000MN0001039400  00019921013   0000551917 
NO ACCT FOR CERT 9000000MN0001039400  00019921015   0000551903 
NO ACCT FOR CERT 9000000MN0001039400  00019921015   0000551904 
NO ACCT FOR CERT 9000000MN0001039400  00019921016   0000551906 
NO ACCT FOR CERT 9000000MN0001039400  00019921019   0000551905 
NO ACCT FOR CERT 9000000MN0001039400  00019921019   0000551907 
NO ACCT FOR CERT 9000000MN0001039400  00019921019   0000551909 
NO ACCT FOR CERT 9000000MN0001039400  00019921022   0000551908 
NO ACCT FOR CERT 9000000MN0001039400  00019921022   0000551915 
NO ACCT FOR CERT 9000000MN0001039400  00019921023   0000551910 
NO ACCT FOR CERT 9000000MN0001039400  00019921023   0000551912 
NO ACCT FOR CERT 9000000MN0001039400  00019921023   0000551914 
NO ACCT FOR CERT 9000000MN0001039400  00019921023   0000551916 
NO ACCT FOR CERT 9000000MN0001039400  00019921023   0000551918 
NO ACCT FOR CERT 9000000MN0001039400  00019921026   0000551919 
NO ACCT FOR CERT 9000000MN0001039400  00019921026   0000551920 
NO ACCT FOR CERT 9000000MN0001039400  00019921029   0000551921 
NO ACCT FOR CERT 9000000MN0001039400  00019921029   0000551922 
NO ACCT FOR CERT 9000000MN0001039400  00019921029   0000551923 
NO ACCT FOR CERT 9000000MN0001039400  00019921029   0000551924 
NO ACCT FOR CERT 9000000MN0001039400  00019921102   0000551926 
NO ACCT FOR CERT 9000000MN0001039400  00019921102   0000551927 
NO ACCT FOR CERT 9000000MN0001039400  00019921103   0000551930 
NO ACCT FOR CERT 9000000MN0001039400  00019921104   0000556576 
NO ACCT FOR CERT 9000000MN0001039400  00019921105   0000551928 
NO ACCT FOR CERT 9000000MN0001039400  00019921106   0000551932 
NO ACCT FOR CERT 9000000MN0001039400  00019921106   0000551935 
NO ACCT FOR CERT 9000000MN0001039400  00019921109   0000551931 
NO ACCT FOR CERT 9000000MN0001039400  00019921112   0000551929 
NO ACCT FOR CERT 9000000MN0001039400  00019921113   0000551933 
NO ACCT FOR CERT 9000000MN0001039400  00019921113   0000551936 
NO ACCT FOR CERT 9000000MN0001039400  00019921116   0000551937 
NO ACCT FOR CERT 9000000MN0001039400  00019921117   0000551938 
NO ACCT FOR CERT 9000000MN0001039400  00019921119   0000551939 
NO ACCT FOR CERT 9000000MN0001039400  00019921119   0000556575 
NO ACCT FOR CERT 9000000MN0001039400  00019921125   0000551942 
NO ACCT FOR CERT 9000000MN0001039400  00019921127   0000551940 
NO ACCT FOR CERT 9000000MN0001039400  00019921127   0000551941 
NO ACCT FOR CERT 9000000MN0001039400  00019921127   0000551943 
NO ACCT FOR CERT 9000000MN0001039400  00019921130   0000551944 
NO ACCT FOR CERT 9000000MN0001039400  00019921130   0000551945 
NO ACCT FOR CERT 9000000MN0001039400  00019921130   0000551946 
NO ACCT FOR CERT 9000000MN0001039400  00019921201   0000551947 
NO ACCT FOR CERT 9000000MN0001039400  00019921201   0000556552 
NO ACCT FOR CERT 9000000MN0001039400  00019921202   0000551948 
NO ACCT FOR CERT 9000000MN0001039400  00019921203   0000556557 
NO ACCT FOR CERT 9000000MN0001039400  00019921204   0000551949 
NO ACCT FOR CERT 9000000MN0001039400  00019921204   0000556551 
NO ACCT FOR CERT 9000000MN0001039400  00019921204   0000556553 
NO ACCT FOR CERT 9000000MN0001039400  00019921207   0000556560 
NO ACCT FOR CERT 9000000MN0001039400  00019921208   0000551950 
NO ACCT FOR CERT 9000000MN0001039400  00019921208   0000556554 
NO ACCT FOR CERT 9000000MN0001039400  00019921208   0000556555 
NO ACCT FOR CERT 9000000MN0001039400  00019921208   0000556556 
NO ACCT FOR CERT 9000000MN0001039400  00019921215   0000556559 
NO ACCT FOR CERT 9000000MN0001039400  00019921217   0000556558 
NO ACCT FOR CERT 9000000MN0001039400  00019921218   0000556567 
NO ACCT FOR CERT 9000000MN0001039400  00019921221   0000556562 
NO ACCT FOR CERT 9000000MN0001039400  00019921223   0000556563 
NO ACCT FOR CERT 9000000MN0001039400  00019921223   0000556564 
NO ACCT FOR CERT 9000000MN0001039400  00019921224   0000556565 
NO ACCT FOR CERT 9000000MN0001039400  00019921229   0000556566 
NO ACCT FOR CERT 9000000MN0001039400  00019921230   0000556568 
NO ACCT FOR CERT 9000000MN0001039400  00019930104   0000556569 
NO ACCT FOR CERT 9000000MN0001039400  00019930107   0000556571 
NO ACCT FOR CERT 9000000MN0001039400  00019930108   0000556572 
NO ACCT FOR CERT 9000000MN0001039400  00019930111   0000556573 
NO ACCT FOR CERT 9000000MN0001039400  00019930112   0000556574 
NO ACCT FOR CERT 9000000MN0001039400  00019930115   0000556580 
NO ACCT FOR CERT 9000000MN0001039400  00019930119   0000556577 
NO ACCT FOR CERT 9000000MN0001039400  00019930119   0000556578 
NO ACCT FOR CERT 9000000MN0001039400  00019930120   0000556579 
NO ACCT FOR CERT 9000000MN0001039400  00019930122   0000556584 
NO ACCT FOR CERT 9000000MN0001039400  00019930122   0000556585 
NO ACCT FOR CERT 9000000MN0001039400  00019930125   0000556582 
NO ACCT FOR CERT 9000000MN0001039400  00019930125   0000556583 
NO ACCT FOR CERT 9000000MN0001039400  00019930125   0000556586 
NO ACCT FOR CERT 9000000MN0001039400  00019930203   0000556588 
NO ACCT FOR CERT 9000000MN0001039400  00019930204   0000556587 
NO ACCT FOR CERT 9000000MN0001039400  00019930204   0000556589 
NO ACCT FOR CERT 9000000MN0001039400  00019930204   0000556592 
NO ACCT FOR CERT 9000000MN0001039400  00019930205   0000556593 
NO ACCT FOR CERT 9000000MN0001039400  00019930208   0000556590 
NO ACCT FOR CERT 9000000MN0001039400  00019930208   0000556591 
NO ACCT FOR CERT 9000000MN0001039400  00019930208   0000556594 
NO ACCT FOR CERT 9000000MN0001039400  00019930208   0000556595 
NO ACCT FOR CERT 9000000MN0001039400  00019930208   0000556596 
NO ACCT FOR CERT 9000000MN0001039400  00019930208   0000556603 
NO ACCT FOR CERT 9000000MN0001039400  00019930209   0000556597 
NO ACCT FOR CERT 9000000MN0001039400  00019930210   0000556598 
NO ACCT FOR CERT 9000000MN0001039400  00019930210   0000556599 
NO ACCT FOR CERT 9000000MN0001039400  00019930211   0000556604 
NO ACCT FOR CERT 9000000MN0001039400  00019930211   0000556605 
NO ACCT FOR CERT 9000000MN0001039400  00019930212   0000556600 
NO ACCT FOR CERT 9000000MN0001039400  00019930212   0000556606 
NO ACCT FOR CERT 9000000MN0001039400  00019930212   0000556607 
NO ACCT FOR CERT 9000000MN0001039400  00019930212   0000556608 
NO ACCT FOR CERT 9000000MN0001039400  00019930212   0000556609 
NO ACCT FOR CERT 9000000MN0001039400  00019930215   0000556610 
NO ACCT FOR CERT 9000000MN0001039400  00019930216   0000556601 
NO ACCT FOR CERT 9000000MN0001039400  00019930217   0000556602 
NO ACCT FOR CERT 9000000MN0001039400  00019930217   0000556611 
NO ACCT FOR CERT 9000000MN0001039400  00019930222   0000556614 
NO ACCT FOR CERT 9000000MN0001039400  00019930222   0000556615 
NO ACCT FOR CERT 9000000MN0001039400  00019930223   0000556616 
NO ACCT FOR CERT 9000000MN0001039400  00019930224   0000556613 
NO ACCT FOR CERT 9000000MN0001039400  00019930224   0000556617 
NO ACCT FOR CERT 9000000MN0001039400  00019930225   0000556618 
NO ACCT FOR CERT 9000000MN0001039400  00019930226   0000556619 
NO ACCT FOR CERT 9000000MN0001039400  00019930226   0000556620 
NO ACCT FOR CERT 9000000MN0001039400  00019930301   0000556612 
NO ACCT FOR CERT 9000000MN0001039400  00019930302   0000556622 
NO ACCT FOR CERT 9000000MN0001039400  00019930304   0000556621 
NO ACCT FOR CERT 9000000MN0001039400  00019930304   0000556623 
NO ACCT FOR CERT 9000000MN0001039400  00019930304   0000556624 
NO ACCT FOR CERT 9000000MN0001039400  00019930308   0000556625 
NO ACCT FOR CERT 9000000MN0001039400  00019930309   0000556626 
NO ACCT FOR CERT 9000000MN0001039400  00019930309   0000556632 
NO ACCT FOR CERT 9000000MN0001039400  00019930310   0000556627 
NO ACCT FOR CERT 9000000MN0001039400  00019930310   0000556628 
NO ACCT FOR CERT 9000000MN0001039400  00019930310   0000556629 
NO ACCT FOR CERT 9000000MN0001039400  00019930312   0000556630 
NO ACCT FOR CERT 9000000MN0001039400  00019930312   0000556633 
NO ACCT FOR CERT 9000000MN0001039400  00019930315   0000556635 
NO ACCT FOR CERT 9000000MN0001039400  00019930316   0000556631 
NO ACCT FOR CERT 9000000MN0001039400  00019930318   0000556637 
NO ACCT FOR CERT 9000000MN0001039400  00019930318   0000556638 
NO ACCT FOR CERT 9000000MN0001039400  00019930319   0000556639 
NO ACCT FOR CERT 9000000MN0001039400  00019930323   0000556640 
NO ACCT FOR CERT 9000000MN0001039400  00019930323   0000556645 
NO ACCT FOR CERT 9000000MN0001039400  00019930324   0000556636 
NO ACCT FOR CERT 9000000MN0001039400  00019930324   0000556641 
NO ACCT FOR CERT 9000000MN0001039400  00019930324   0000556642 
NO ACCT FOR CERT 9000000MN0001039400  00019930324   0000556643 
NO ACCT FOR CERT 9000000MN0001039400  00019930324   0000556656 
NO ACCT FOR CERT 9000000MN0001039400  00019930325   0000556644 
NO ACCT FOR CERT 9000000MN0001039400  00019930325   0000556646 
NO ACCT FOR CERT 9000000MN0001039400  00019930326   0000556647 
NO ACCT FOR CERT 9000000MN0001039400  00019930329   0000556649 
NO ACCT FOR CERT 9000000MN0001039400  00019930329   0000556650 
NO ACCT FOR CERT 9000000MN0001039400  00019930329   0000556651 
NO ACCT FOR CERT 9000000MN0001039400  00019930329   0000556652 
NO ACCT FOR CERT 9000000MN0001039400  00019930330   0000556653 
NO ACCT FOR CERT 9000000MN0001039400  00019930331   0000556654 
NO ACCT FOR CERT 9000000MN0001039400  00019930402   0000556657 
NO ACCT FOR CERT 9000000MN0001039400  00019930405   0000556655 
NO ACCT FOR CERT 9000000MN0001039400  00019930406   0000556658 
NO ACCT FOR CERT 9000000MN0001039400  00019930407   0000556659 
NO ACCT FOR CERT 9000000MN0001039400  00019930409   0000556689 
NO ACCT FOR CERT 9000000MN0001039400  00019930412   0000556661 
NO ACCT FOR CERT 9000000MN0001039400  00019930413   0000556662 
NO ACCT FOR CERT 9000000MN0001039400  00019930415   0000556660 
NO ACCT FOR CERT 9000000MN0001039400  00019930415   0000556663 
NO ACCT FOR CERT 9000000MN0001039400  00019930416   0000556665 
NO ACCT FOR CERT 9000000MN0001039400  00019930419   0000556666 
NO ACCT FOR CERT 9000000MN0001039400  00019930420   0000556664 
NO ACCT FOR CERT 9000000MN0001039400  00019930420   0000556667 
NO ACCT FOR CERT 9000000MN0001039400  00019930420   0000556668 
NO ACCT FOR CERT 9000000MN0001039400  00019930421   0000556669 
NO ACCT FOR CERT 9000000MN0001039400  00019930421   0000556670 
NO ACCT FOR CERT 9000000MN0001039400  00019930422   0000556671 
NO ACCT FOR CERT 9000000MN0001039400  00019930423   0000556672 
NO ACCT FOR CERT 9000000MN0001039400  00019930423   0000556674 
NO ACCT FOR CERT 9000000MN0001039400  00019930423   0000556675 
NO ACCT FOR CERT 9000000MN0001039400  00019930426   0000556676 
NO ACCT FOR CERT 9000000MN0001039400  00019930427   0000556677 
NO ACCT FOR CERT 9000000MN0001039400  00019930428   0000556678 
NO ACCT FOR CERT 9000000MN0001039400  00019930429   0000556673 
NO ACCT FOR CERT 9000000MN0001039400  00019930503   0000556680 
NO ACCT FOR CERT 9000000MN0001039400  00019930503   0000556681 
NO ACCT FOR CERT 9000000MN0001039400  00019930505   0000569204 
NO ACCT FOR CERT 9000000MN0001039400  00019930506   0000556684 
NO ACCT FOR CERT 9000000MN0001039400  00019930506   0000556685 
NO ACCT FOR CERT 9000000MN0001039400  00019930507   0000556686 
NO ACCT FOR CERT 9000000MN0001039400  00019930508   0000556682 
NO ACCT FOR CERT 9000000MN0001039400  00019930510   0000556687 
NO ACCT FOR CERT 9000000MN0001039400  00019930511   0000556688 
NO ACCT FOR CERT 9000000MN0001039400  00019930513   0000556690 
NO ACCT FOR CERT 9000000MN0001039400  00019930513   0000556691 
NO ACCT FOR CERT 9000000MN0001039400  00019930514   0000556692 
NO ACCT FOR CERT 9000000MN0001039400  00019930517   0000556683 
NO ACCT FOR CERT 9000000MN0001039400  00019930517   0000556693 
NO ACCT FOR CERT 9000000MN0001039400  00019930517   0000556694 
NO ACCT FOR CERT 9000000MN0001039400  00019930517   0000556695 
NO ACCT FOR CERT 9000000MN0001039400  00019930520   0000569209 
NO ACCT FOR CERT 9000000MN0001039400  00019930521   0000556696 
NO ACCT FOR CERT 9000000MN0001039400  00019930521   0000556697 
NO ACCT FOR CERT 9000000MN0001039400  00019930524   0000556698 
NO ACCT FOR CERT 9000000MN0001039400  00019930524   0000556699 
NO ACCT FOR CERT 9000000MN0001039400  00019930524   0000569201 
NO ACCT FOR CERT 9000000MN0001039400  00019930524   0000569210 
NO ACCT FOR CERT 9000000MN0001039400  00019930525   0000556700 
NO ACCT FOR CERT 9000000MN0001039400  00019930525   0000569202 
NO ACCT FOR CERT 9000000MN0001039400  00019930525   0000569203 
NO ACCT FOR CERT 9000000MN0001039400  00019930525   0000569205 
NO ACCT FOR CERT 9000000MN0001039400  00019930526   0000569206 
NO ACCT FOR CERT 9000000MN0001039400  00019930527   0000569207 
NO ACCT FOR CERT 9000000MN0001039400  00019930527   0000569208 
NO ACCT FOR CERT 9000000MN0001039400  00019930528   0000569211 
NO ACCT FOR CERT 9000000MN0001039400  00019930529   0000556679 
NO ACCT FOR CERT 9000000MN0001039400  00019930603   0000569212 
NO ACCT FOR CERT 9000000MN0001039400  00019930607   0000569213 
NO ACCT FOR CERT 9000000MN0001039400  00019930607   0000569214 
NO ACCT FOR CERT 9000000MN0001039400  00019930607   0000569215 
NO ACCT FOR CERT 9000000MN0001039400  00019930609   0000569216 
NO ACCT FOR CERT 9000000MN0001039400  00019930611   0000569217 
NO ACCT FOR CERT 9000000MN0001039400  00019930614   0000569218 
NO ACCT FOR CERT 9000000MN0001039400  00019930614   0000569219 
NO ACCT FOR CERT 9000000MN0001039400  00019930614   0000569220 
NO ACCT FOR CERT 9000000MN0001039400  00019930615   0000569221 
NO ACCT FOR CERT 9000000MN0001039400  00019930615   0000569222 
NO ACCT FOR CERT 9000000MN0001039400  00019930615   0000569225 
NO ACCT FOR CERT 9000000MN0001039400  00019930616   0000569223 
NO ACCT FOR CERT 9000000MN0001039400  00019930616   0000569224 
NO ACCT FOR CERT 9000000MN0001039400  00019930616   0000569229 
NO ACCT FOR CERT 9000000MN0001039400  00019930618   0000569226 
NO ACCT FOR CERT 9000000MN0001039400  00019930618   0000569227 
NO ACCT FOR CERT 9000000MN0001039400  00019930621   0000569228 
NO ACCT FOR CERT 9000000MN0001039400  00019930624   0000569230 
NO ACCT FOR CERT 9000000MN0001039400  00019930624   0000569231 
NO ACCT FOR CERT 9000000MN0001039400  00019930624   0000569232 
NO ACCT FOR CERT 9000000MN0001039400  00019930625   0000569233 
NO ACCT FOR CERT 9000000MN0001039400  00019930625   0000569234 
NO ACCT FOR CERT 9000000MN0001039400  00019930628   0000569235 
NO ACCT FOR CERT 9000000MN0001039400  00019930628   0000569236 
NO ACCT FOR CERT 9000000MN0001039400  00019930628   0000569237 
NO ACCT FOR CERT 9000000MN0001039400  00019930630   0000569238 
NO ACCT FOR CERT 9000000MN0001039400  00019930630   0000569252 
NO ACCT FOR CERT 9000000MN0001039400  00019930701   0000569239 
NO ACCT FOR CERT 9000000MN0001039400  00019930702   0000569240 
NO ACCT FOR CERT 9000000MN0001039400  00019930707   0000569241 
NO ACCT FOR CERT 9000000MN0001039400  00019930708   0000569242 
NO ACCT FOR CERT 9000000MN0001039400  00019930708   0000569243 
NO ACCT FOR CERT 9000000MN0001039400  00019930712   0000569244 
NO ACCT FOR CERT 9000000MN0001039400  00019930712   0000569245 
NO ACCT FOR CERT 9000000MN0001039400  00019930712   0000569246 
NO ACCT FOR CERT 9000000MN0001039400  00019930712   0000569247 
NO ACCT FOR CERT 9000000MN0001039400  00019930712   0000569248 
NO ACCT FOR CERT 9000000MN0001039400  00019930719   0000569253 
NO ACCT FOR CERT 9000000MN0001039400  00019930721   0000569249 
NO ACCT FOR CERT 9000000MN0001039400  00019930721   0000569250 
NO ACCT FOR CERT 9000000MN0001039400  00019930721   0000569251 
NO ACCT FOR CERT 9000000MN0001039400  00019930726   0000569254 
NO ACCT FOR CERT 9000000MN0001039400  00019930728   0000569255 
NO ACCT FOR CERT 9000000MN0001039400  00019930728   0000569258 
NO ACCT FOR CERT 9000000MN0001039400  00019930729   0000569256 
NO ACCT FOR CERT 9000000MN0001039400  00019930730   0000569259 
NO ACCT FOR CERT 9000000MN0001039400  00019930730   0000569266 
NO ACCT FOR CERT 9000000MN0001039400  00019930803   0000569260 
NO ACCT FOR CERT 9000000MN0001039400  00019930804   0000569261 
NO ACCT FOR CERT 9000000MN0001039400  00019930804   0000569262 
NO ACCT FOR CERT 9000000MN0001039400  00019930805   0000569263 
NO ACCT FOR CERT 9000000MN0001039400  00019930806   0000569264 
NO ACCT FOR CERT 9000000MN0001039400  00019930809   0000569257 
NO ACCT FOR CERT 9000000MN0001039400  00019930809   0000569265 
NO ACCT FOR CERT 9000000MN0001039400  00019930809   0000569281 
NO ACCT FOR CERT 9000000MN0001039400  00019930811   0000569267 
NO ACCT FOR CERT 9000000MN0001039400  00019930813   0000569268 
NO ACCT FOR CERT 9000000MN0001039400  00019930815   0000569270 
NO ACCT FOR CERT 9000000MN0001039400  00019930817   0000569271 
NO ACCT FOR CERT 9000000MN0001039400  00019930819   0000569269 
NO ACCT FOR CERT 9000000MN0001039400  00019930819   0000569272 
NO ACCT FOR CERT 9000000MN0001039400  00019930819   0000569273 
NO ACCT FOR CERT 9000000MN0001039400  00019930823   0000569274 
NO ACCT FOR CERT 9000000MN0001039400  00019930825   0000569276 
NO ACCT FOR CERT 9000000MN0001039400  00019930825   0000569277 
NO ACCT FOR CERT 9000000MN0001039400  00019930826   0000569275 
NO ACCT FOR CERT 9000000MN0001039400  00019930827   0000569278 
NO ACCT FOR CERT 9000000MN0001039400  00019930827   0000569279 
NO ACCT FOR CERT 9000000MN0001039400  00019930827   0000569282 
NO ACCT FOR CERT 9000000MN0001039400  00019930830   0000569280 
NO ACCT FOR CERT 9000000MN0001039400  00019930830   0000569283 
NO ACCT FOR CERT 9000000MN0001039400  00019930830   0000569284 
NO ACCT FOR CERT 9000000MN0001039400  00019930831   0000569285 
NO ACCT FOR CERT 9000000MN0001039400  00019930902   0000569286 
NO ACCT FOR CERT 9000000MN0001039400  00019930902   0000569287 
NO ACCT FOR CERT 9000000MN0001039400  00019930903   0000569288 
NO ACCT FOR CERT 9000000MN0001039400  00019930903   0000569289 
NO ACCT FOR CERT 9000000MN0001039400  00019930903   0000569290 
NO ACCT FOR CERT 9000000MN0001039400  00019930907   0000569291 
NO ACCT FOR CERT 9000000MN0001039400  00019930914   0000569293 
NO ACCT FOR CERT 9000000MN0001039400  00019930915   0000569294 
NO ACCT FOR CERT 9000000MN0001039400  00019930916   0000569295 
NO ACCT FOR CERT 9000000MN0001039400  00019930916   0000569296 
NO ACCT FOR CERT 9000000MN0001039400  00019930916   0000569308 
NO ACCT FOR CERT 9000000MN0001039400  00019930917   0000569297 
NO ACCT FOR CERT 9000000MN0001039400  00019930917   0000569298 
NO ACCT FOR CERT 9000000MN0001039400  00019930920   0000569299 
NO ACCT FOR CERT 9000000MN0001039400  00019930921   0000569300 
NO ACCT FOR CERT 9000000MN0001039400  00019930921   0000569301 
NO ACCT FOR CERT 9000000MN0001039400  00019930923   0000569302 
NO ACCT FOR CERT 9000000MN0001039400  00019930923   0000569303 
NO ACCT FOR CERT 9000000MN0001039400  00019930924   0000569304 
NO ACCT FOR CERT 9000000MN0001039400  00019930926   0000569305 
NO ACCT FOR CERT 9000000MN0001039400  00019930927   0000569306 
NO ACCT FOR CERT 9000000MN0001039400  00019930928   0000569346 
NO ACCT FOR CERT 9000000MN0001039400  00019930929   0000569307 
NO ACCT FOR CERT 9000000MN0001039400  00019930930   0000569309 
NO ACCT FOR CERT 9000000MN0001039400  00019931001   0000569310 
NO ACCT FOR CERT 9000000MN0001039400  00019931001   0000569313 
NO ACCT FOR CERT 9000000MN0001039400  00019931005   0000569311 
NO ACCT FOR CERT 9000000MN0001039400  00019931005   0000569312 
NO ACCT FOR CERT 9000000MN0001039400  00019931007   0000569314 
NO ACCT FOR CERT 9000000MN0001039400  00019931007   0000569315 
NO ACCT FOR CERT 9000000MN0001039400  00019931007   0000569316 
NO ACCT FOR CERT 9000000MN0001039400  00019931007   0000569317 
NO ACCT FOR CERT 9000000MN0001039400  00019931014   0000569318 
NO ACCT FOR CERT 9000000MN0001039400  00019931014   0000569321 
NO ACCT FOR CERT 9000000MN0001039400  00019931018   0000569319 
NO ACCT FOR CERT 9000000MN0001039400  00019931019   0000569322 
NO ACCT FOR CERT 9000000MN0001039400  00019931020   0000569320 
NO ACCT FOR CERT 9000000MN0001039400  00019931025   0000569323 
NO ACCT FOR CERT 9000000MN0001039400  00019931025   0000569324 
NO ACCT FOR CERT 9000000MN0001039400  00019931025   0000569325 
NO ACCT FOR CERT 9000000MN0001039400  00019931025   0000569326 
NO ACCT FOR CERT 9000000MN0001039400  00019931026   0000569328 
NO ACCT FOR CERT 9000000MN0001039400  00019931027   0000569327 
NO ACCT FOR CERT 9000000MN0001039400  00019931028   0000569329 
NO ACCT FOR CERT 9000000MN0001039400  00019931028   0000569330 
NO ACCT FOR CERT 9000000MN0001039400  00019931028   0000569331 
NO ACCT FOR CERT 9000000MN0001039400  00019931029   0000569332 
NO ACCT FOR CERT 9000000MN0001039400  00019931029   0000569333 
NO ACCT FOR CERT 9000000MN0001039400  00019931029   0000569334 
NO ACCT FOR CERT 9000000MN0001039400  00019931029   0000569337 
NO ACCT FOR CERT 9000000MN0001039400  00019931101   0000569335 
NO ACCT FOR CERT 9000000MN0001039400  00019931101   0000569336 
NO ACCT FOR CERT 9000000MN0001039400  00019931105   0000569338 
NO ACCT FOR CERT 9000000MN0001039400  00019931108   0000569339 
NO ACCT FOR CERT 9000000MN0001039400  00019931108   0000569340 
NO ACCT FOR CERT 9000000MN0001039400  00019931108   0000569341 
NO ACCT FOR CERT 9000000MN0001039400  00019931110   0000569342 
NO ACCT FOR CERT 9000000MN0001039400  00019931111   0000569343 
NO ACCT FOR CERT 9000000MN0001039400  00019931112   0000569344 
NO ACCT FOR CERT 9000000MN0001039400  00019931115   0000569345 
NO ACCT FOR CERT 9000000MN0001039400  00019931117   0000569347 
NO ACCT FOR CERT 9000000MN0001039400  00019931118   0000569348 
NO ACCT FOR CERT 9000000MN0001039400  00019931118   0000569349 
NO ACCT FOR CERT 9000000MN0001039400  00019931119   0000569350 
NO ACCT FOR CERT 9000000MN0001039400  00019931119   0000569351 
NO ACCT FOR CERT 9000000MN0001039400  00019931122   0000569352 
NO ACCT FOR CERT 9000000MN0001039400  00019931122   0000569353 
NO ACCT FOR CERT 9000000MN0001039400  00019931122   0000569356 
NO ACCT FOR CERT 9000000MN0001039400  00019931123   0000569354 
NO ACCT FOR CERT 9000000MN0001039400  00019931123   0000569355 
NO ACCT FOR CERT 9000000MN0001039400  00019931123   0000569366 
NO ACCT FOR CERT 9000000MN0001039400  00019931124   0000569357 
NO ACCT FOR CERT 9000000MN0001039400  00019931126   0000569358 
NO ACCT FOR CERT 9000000MN0001039400  00019931126   0000569359 
NO ACCT FOR CERT 9000000MN0001039400  00019931126   0000569361 
NO ACCT FOR CERT 9000000MN0001039400  00019931126   0000569362 
NO ACCT FOR CERT 9000000MN0001039400  00019931129   0000569363 
NO ACCT FOR CERT 9000000MN0001039400  00019931129   0000569364 
NO ACCT FOR CERT 9000000MN0001039400  00019931129   0000569365 
NO ACCT FOR CERT 9000000MN0001039400  00019931202   0000569360 
NO ACCT FOR CERT 9000000MN0001039400  00019931202   0000569388 
NO ACCT FOR CERT 9000000MN0001039400  00019931203   0000569367 
NO ACCT FOR CERT 9000000MN0001039400  00019931203   0000569368 
NO ACCT FOR CERT 9000000MN0001039400  00019931203   0000569369 
NO ACCT FOR CERT 9000000MN0001039400  00019931203   0000569373 
NO ACCT FOR CERT 9000000MN0001039400  00019931203   0000569395 
NO ACCT FOR CERT 9000000MN0001039400  00019931206   0000569370 
NO ACCT FOR CERT 9000000MN0001039400  00019931206   0000569379 
NO ACCT FOR CERT 9000000MN0001039400  00019931207   0000569371 
NO ACCT FOR CERT 9000000MN0001039400  00019931207   0000569378 
NO ACCT FOR CERT 9000000MN0001039400  00019931208   0000569372 
NO ACCT FOR CERT 9000000MN0001039400  00019931208   0000569375 
NO ACCT FOR CERT 9000000MN0001039400  00019931208   0000569376 
NO ACCT FOR CERT 9000000MN0001039400  00019931208   0000569377 
NO ACCT FOR CERT 9000000MN0001039400  00019931209   0000569374 
NO ACCT FOR CERT 9000000MN0001039400  00019931209   0000569381 
NO ACCT FOR CERT 9000000MN0001039400  00019931209   0000569491 
NO ACCT FOR CERT 9000000MN0001039400  00019931210   0000569396 
NO ACCT FOR CERT 9000000MN0001039400  00019931213   0000569382 
NO ACCT FOR CERT 9000000MN0001039400  00019931213   0000569383 
NO ACCT FOR CERT 9000000MN0001039400  00019931214   0000569384 
NO ACCT FOR CERT 9000000MN0001039400  00019931214   0000569385 
NO ACCT FOR CERT 9000000MN0001039400  00019931215   0000569386 
NO ACCT FOR CERT 9000000MN0001039400  00019931215   0000569387 
NO ACCT FOR CERT 9000000MN0001039400  00019931215   0000569389 
NO ACCT FOR CERT 9000000MN0001039400  00019931217   0000569390 
NO ACCT FOR CERT 9000000MN0001039400  00019931217   0000569391 
NO ACCT FOR CERT 9000000MN0001039400  00019931217   0000569400 
NO ACCT FOR CERT 9000000MN0001039400  00019931220   0000569406 
NO ACCT FOR CERT 9000000MN0001039400  00019931222   0000569392 
NO ACCT FOR CERT 9000000MN0001039400  00019931222   0000569393 
NO ACCT FOR CERT 9000000MN0001039400  00019931222   0000569394 
NO ACCT FOR CERT 9000000MN0001039400  00019931226   0000569481 
NO ACCT FOR CERT 9000000MN0001039400  00019931227   0000569397 
NO ACCT FOR CERT 9000000MN0001039400  00019931227   0000569398 
NO ACCT FOR CERT 9000000MN0001039400  00019931227   0000569401 
NO ACCT FOR CERT 9000000MN0001039400  00019931230   0000569399 
NO ACCT FOR CERT 9000000MN0001039400  00019931231   0000569403 
NO ACCT FOR CERT 9000000MN0001039400  00019931231   0000569404 
NO ACCT FOR CERT 9000000MN0001039400  00019940105   0000569405 
NO ACCT FOR CERT 9000000MN0001039400  00019940106   0000569402 
NO ACCT FOR CERT 9000000MN0001039400  00019940107   0000569407 
NO ACCT FOR CERT 9000000MN0001039400  00019940110   0000569408 
NO ACCT FOR CERT 9000000MN0001039400  00019940110   0000569409 
NO ACCT FOR CERT 9000000MN0001039400  00019940112   0000569410 
NO ACCT FOR CERT 9000000MN0001039400  00019940113   0000569411 
NO ACCT FOR CERT 9000000MN0001039400  00019940119   0000569412 
NO ACCT FOR CERT 9000000MN0001039400  00019940119   0000569413 
NO ACCT FOR CERT 9000000MN0001039400  00019940119   0000569414 
NO ACCT FOR CERT 9000000MN0001039400  00019940124   0000569415 
NO ACCT FOR CERT 9000000MN0001039400  00019940124   0000569416 
NO ACCT FOR CERT 9000000MN0001039400  00019940124   0000569417 
NO ACCT FOR CERT 9000000MN0001039400  00019940124   0000569418 
NO ACCT FOR CERT 9000000MN0001039400  00019940125   0000569419 
NO ACCT FOR CERT 9000000MN0001039400  00019940126   0000569420 
NO ACCT FOR CERT 9000000MN0001039400  00019940127   0000569421 
NO ACCT FOR CERT 9000000MN0001039400  00019940127   0000569422 
NO ACCT FOR CERT 9000000MN0001039400  00019940128   0000569423 
NO ACCT FOR CERT 9000000MN0001039400  00019940128   0000569425 
NO ACCT FOR CERT 9000000MN0001039400  00019940131   0000569424 
NO ACCT FOR CERT 9000000MN0001039400  00019940202   0000569426 
NO ACCT FOR CERT 9000000MN0001039400  00019940202   0000569427 
NO ACCT FOR CERT 9000000MN0001039400  00019940202   0000569428 
NO ACCT FOR CERT 9000000MN0001039400  00019940203   0000569429 
NO ACCT FOR CERT 9000000MN0001039400  00019940204   0000569430 
NO ACCT FOR CERT 9000000MN0001039400  00019940208   0000569443 
NO ACCT FOR CERT 9000000MN0001039400  00019940209   0000569431 
NO ACCT FOR CERT 9000000MN0001039400  00019940209   0000569432 
NO ACCT FOR CERT 9000000MN0001039400  00019940209   0000569433 
NO ACCT FOR CERT 9000000MN0001039400  00019940210   0000569434 
NO ACCT FOR CERT 9000000MN0001039400  00019940210   0000569435 
NO ACCT FOR CERT 9000000MN0001039400  00019940210   0000569466 
NO ACCT FOR CERT 9000000MN0001039400  00019940211   0000569436 
NO ACCT FOR CERT 9000000MN0001039400  00019940211   0000569437 
NO ACCT FOR CERT 9000000MN0001039400  00019940214   0000569438 
NO ACCT FOR CERT 9000000MN0001039400  00019940214   0000569444 
NO ACCT FOR CERT 9000000MN0001039400  00019940215   0000569439 
NO ACCT FOR CERT 9000000MN0001039400  00019940215   0000569440 
NO ACCT FOR CERT 9000000MN0001039400  00019940215   0000569441 
NO ACCT FOR CERT 9000000MN0001039400  00019940217   0000569442 
NO ACCT FOR CERT 9000000MN0001039400  00019940218   0000569445 
NO ACCT FOR CERT 9000000MN0001039400  00019940218   0000569446 
NO ACCT FOR CERT 9000000MN0001039400  00019940218   0000569447 
NO ACCT FOR CERT 9000000MN0001039400  00019940221   0000569448 
NO ACCT FOR CERT 9000000MN0001039400  00019940221   0000569449 
NO ACCT FOR CERT 9000000MN0001039400  00019940222   0000569450 
NO ACCT FOR CERT 9000000MN0001039400  00019940222   0000569451 
NO ACCT FOR CERT 9000000MN0001039400  00019940222   0000569452 
NO ACCT FOR CERT 9000000MN0001039400  00019940222   0000569453 
NO ACCT FOR CERT 9000000MN0001039400  00019940223   0000569454 
NO ACCT FOR CERT 9000000MN0001039400  00019940223   0000569455 
NO ACCT FOR CERT 9000000MN0001039400  00019940224   0000569456 
NO ACCT FOR CERT 9000000MN0001039400  00019940224   0000569457 
NO ACCT FOR CERT 9000000MN0001039400  00019940224   0000569458 
NO ACCT FOR CERT 9000000MN0001039400  00019940224   0000579416 
NO ACCT FOR CERT 9000000MN0001039400  00019940225   0000569459 
NO ACCT FOR CERT 9000000MN0001039400  00019940228   0000569460 
NO ACCT FOR CERT 9000000MN0001039400  00019940228   0000569461 
NO ACCT FOR CERT 9000000MN0001039400  00019940228   0000569462 
NO ACCT FOR CERT 9000000MN0001039400  00019940301   0000569463 
NO ACCT FOR CERT 9000000MN0001039400  00019940301   0000569464 
NO ACCT FOR CERT 9000000MN0001039400  00019940302   0000569465 
NO ACCT FOR CERT 9000000MN0001039400  00019940307   0000569467 
NO ACCT FOR CERT 9000000MN0001039400  00019940307   0000569468 
NO ACCT FOR CERT 9000000MN0001039400  00019940307   0000569469 
NO ACCT FOR CERT 9000000MN0001039400  00019940307   0000569470 
NO ACCT FOR CERT 9000000MN0001039400  00019940307   0000569471 
NO ACCT FOR CERT 9000000MN0001039400  00019940308   0000569472 
NO ACCT FOR CERT 9000000MN0001039400  00019940308   0000569475 
NO ACCT FOR CERT 9000000MN0001039400  00019940309   0000569473 
NO ACCT FOR CERT 9000000MN0001039400  00019940309   0000569474 
NO ACCT FOR CERT 9000000MN0001039400  00019940311   0000569476 
NO ACCT FOR CERT 9000000MN0001039400  00019940311   0000569477 
NO ACCT FOR CERT 9000000MN0001039400  00019940311   0000569478 
NO ACCT FOR CERT 9000000MN0001039400  00019940311   0000569479 
NO ACCT FOR CERT 9000000MN0001039400  00019940314   0000569480 
NO ACCT FOR CERT 9000000MN0001039400  00019940316   0000569482 
NO ACCT FOR CERT 9000000MN0001039400  00019940317   0000569483 
NO ACCT FOR CERT 9000000MN0001039400  00019940321   0000569484 
NO ACCT FOR CERT 9000000MN0001039400  00019940321   0000569485 
NO ACCT FOR CERT 9000000MN0001039400  00019940322   0000569486 
NO ACCT FOR CERT 9000000MN0001039400  00019940324   0000569487 
NO ACCT FOR CERT 9000000MN0001039400  00019940324   0000569488 
NO ACCT FOR CERT 9000000MN0001039400  00019940325   0000569493 
NO ACCT FOR CERT 9000000MN0001039400  00019940328   0000569489 
NO ACCT FOR CERT 9000000MN0001039400  00019940328   0000569490 
NO ACCT FOR CERT 9000000MN0001039400  00019940331   0000569492 
NO ACCT FOR CERT 9000000MN0001039400  00019940401   0000569494 
NO ACCT FOR CERT 9000000MN0001039400  00019940401   0000569495 
NO ACCT FOR CERT 9000000MN0001039400  00019940401   0000569496 
NO ACCT FOR CERT 9000000MN0001039400  00019940404   0000569497 
NO ACCT FOR CERT 9000000MN0001039400  00019940404   0000569498 
NO ACCT FOR CERT 9000000MN0001039400  00019940405   0000579405 
NO ACCT FOR CERT 9000000MN0001039400  00019940406   0000569499 
NO ACCT FOR CERT 9000000MN0001039400  00019940406   0000569500 
NO ACCT FOR CERT 9000000MN0001039400  00019940407   0000579403 
NO ACCT FOR CERT 9000000MN0001039400  00019940407   0000579404 
NO ACCT FOR CERT 9000000MN0001039400  00019940407   0000579409 
NO ACCT FOR CERT 9000000MN0001039400  00019940407   0000579410 
NO ACCT FOR CERT 9000000MN0001039400  00019940411   0000579407 
NO ACCT FOR CERT 9000000MN0001039400  00019940411   0000579408 
NO ACCT FOR CERT 9000000MN0001039400  00019940411   0000579411 
NO ACCT FOR CERT 9000000MN0001039400  00019940411   0000579412 
NO ACCT FOR CERT 9000000MN0001039400  00019940412   0000579413 
NO ACCT FOR CERT 9000000MN0001039400  00019940412   0000579433 
NO ACCT FOR CERT 9000000MN0001039400  00019940413   0000579414 
NO ACCT FOR CERT 9000000MN0001039400  00019940414   0000579406 
NO ACCT FOR CERT 9000000MN0001039400  00019940414   0000579417 
NO ACCT FOR CERT 9000000MN0001039400  00019940415   0000579418 
NO ACCT FOR CERT 9000000MN0001039400  00019940415   0000579419 
NO ACCT FOR CERT 9000000MN0001039400  00019940415   0000579420 
NO ACCT FOR CERT 9000000MN0001039400  00019940415   0000579421 
NO ACCT FOR CERT 9000000MN0001039400  00019940418   0000579422 
NO ACCT FOR CERT 9000000MN0001039400  00019940419   0000579423 
NO ACCT FOR CERT 9000000MN0001039400  00019940419   0000579446 
NO ACCT FOR CERT 9000000MN0001039400  00019940420   0000579424 
NO ACCT FOR CERT 9000000MN0001039400  00019940420   0000579425 
NO ACCT FOR CERT 9000000MN0001039400  00019940421   0000579426 
NO ACCT FOR CERT 9000000MN0001039400  00019940422   0000579428 
NO ACCT FOR CERT 9000000MN0001039400  00019940422   0000579429 
NO ACCT FOR CERT 9000000MN0001039400  00019940425   0000579430 
NO ACCT FOR CERT 9000000MN0001039400  00019940425   0000579432 
NO ACCT FOR CERT 9000000MN0001039400  00019940425   0000579441 
NO ACCT FOR CERT 9000000MN0001039400  00019940427   0000579427 
NO ACCT FOR CERT 9000000MN0001039400  00019940428   0000579434 
NO ACCT FOR CERT 9000000MN0001039400  00019940428   0000579435 
NO ACCT FOR CERT 9000000MN0001039400  00019940428   0000579436 
NO ACCT FOR CERT 9000000MN0001039400  00019940429   0000579437 
NO ACCT FOR CERT 9000000MN0001039400  00019940502   0000579438 
NO ACCT FOR CERT 9000000MN0001039400  00019940502   0000579445 
NO ACCT FOR CERT 9000000MN0001039400  00019940503   0000579439 
NO ACCT FOR CERT 9000000MN0001039400  00019940504   0000579440 
NO ACCT FOR CERT 9000000MN0001039400  00019940505   0000579538 
NO ACCT FOR CERT 9000000MN0001039400  00019940506   0000579443 
NO ACCT FOR CERT 9000000MN0001039400  00019940506   0000579444 
NO ACCT FOR CERT 9000000MN0001039400  00019940509   0000579447 
NO ACCT FOR CERT 9000000MN0001039400  00019940511   0000579442 
NO ACCT FOR CERT 9000000MN0001039400  00019940512   0000579448 
NO ACCT FOR CERT 9000000MN0001039400  00019940512   0000579499 
NO ACCT FOR CERT 9000000MN0001039400  00019940513   0000579449 
NO ACCT FOR CERT 9000000MN0001039400  00019940513   0000579450 
NO ACCT FOR CERT 9000000MN0001039400  00019940517   0000579451 
NO ACCT FOR CERT 9000000MN0001039400  00019940517   0000579452 
NO ACCT FOR CERT 9000000MN0001039400  00019940518   0000579453 
NO ACCT FOR CERT 9000000MN0001039400  00019940518   0000579454 
NO ACCT FOR CERT 9000000MN0001039400  00019940519   0000579455 
NO ACCT FOR CERT 9000000MN0001039400  00019940519   0000579456 
NO ACCT FOR CERT 9000000MN0001039400  00019940519   0000579463 
NO ACCT FOR CERT 9000000MN0001039400  00019940520   0000579457 
NO ACCT FOR CERT 9000000MN0001039400  00019940520   0000579458 
NO ACCT FOR CERT 9000000MN0001039400  00019940523   0000579459 
NO ACCT FOR CERT 9000000MN0001039400  00019940523   0000579460 
NO ACCT FOR CERT 9000000MN0001039400  00019940524   0000579461 
NO ACCT FOR CERT 9000000MN0001039400  00019940525   0000579462 
NO ACCT FOR CERT 9000000MN0001039400  00019940525   0000579464 
NO ACCT FOR CERT 9000000MN0001039400  00019940525   0000579465 
NO ACCT FOR CERT 9000000MN0001039400  00019940525   0000579466 
NO ACCT FOR CERT 9000000MN0001039400  00019940526   0000579468 
NO ACCT FOR CERT 9000000MN0001039400  00019940526   0000579469 
NO ACCT FOR CERT 9000000MN0001039400  00019940526   0000579470 
NO ACCT FOR CERT 9000000MN0001039400  00019940526   0000579472 
NO ACCT FOR CERT 9000000MN0001039400  00019940526   0000579488 
NO ACCT FOR CERT 9000000MN0001039400  00019940527   0000579473 
NO ACCT FOR CERT 9000000MN0001039400  00019940527   0000579474 
NO ACCT FOR CERT 9000000MN0001039400  00019940527   0000579475 
NO ACCT FOR CERT 9000000MN0001039400  00019940531   0000579476 
NO ACCT FOR CERT 9000000MN0001039400  00019940531   0000579477 
NO ACCT FOR CERT 9000000MN0001039400  00019940601   0000579478 
NO ACCT FOR CERT 9000000MN0001039400  00019940603   0000579479 
NO ACCT FOR CERT 9000000MN0001039400  00019940606   0000579480 
NO ACCT FOR CERT 9000000MN0001039400  00019940606   0000579481 
NO ACCT FOR CERT 9000000MN0001039400  00019940607   0000579482 
NO ACCT FOR CERT 9000000MN0001039400  00019940607   0000579484 
NO ACCT FOR CERT 9000000MN0001039400  00019940608   0000579486 
NO ACCT FOR CERT 9000000MN0001039400  00019940608   0000579489 
NO ACCT FOR CERT 9000000MN0001039400  00019940609   0000579487 
NO ACCT FOR CERT 9000000MN0001039400  00019940609   0000579491 
NO ACCT FOR CERT 9000000MN0001039400  00019940610   0000579492 
NO ACCT FOR CERT 9000000MN0001039400  00019940610   0000579493 
NO ACCT FOR CERT 9000000MN0001039400  00019940613   0000579494 
NO ACCT FOR CERT 9000000MN0001039400  00019940614   0000579495 
NO ACCT FOR CERT 9000000MN0001039400  00019940614   0000579496 
NO ACCT FOR CERT 9000000MN0001039400  00019940615   0000579497 
NO ACCT FOR CERT 9000000MN0001039400  00019940616   0000579498 
NO ACCT FOR CERT 9000000MN0001039400  00019940617   0000579500 
NO ACCT FOR CERT 9000000MN0001039400  00019940620   0000579471 
NO ACCT FOR CERT 9000000MN0001039400  00019940621   0000579501 
NO ACCT FOR CERT 9000000MN0001039400  00019940622   0000579502 
NO ACCT FOR CERT 9000000MN0001039400  00019940622   0000579503 
NO ACCT FOR CERT 9000000MN0001039400  00019940623   0000579504 
NO ACCT FOR CERT 9000000MN0001039400  00019940623   0000579505 
NO ACCT FOR CERT 9000000MN0001039400  00019940624   0000579506 
NO ACCT FOR CERT 9000000MN0001039400  00019940624   0000579513 
NO ACCT FOR CERT 9000000MN0001039400  00019940627   0000579507 
NO ACCT FOR CERT 9000000MN0001039400  00019940628   0000579508 
NO ACCT FOR CERT 9000000MN0001039400  00019940629   0000579509 
NO ACCT FOR CERT 9000000MN0001039400  00019940630   0000579510 
NO ACCT FOR CERT 9000000MN0001039400  00019940630   0000579520 
NO ACCT FOR CERT 9000000MN0001039400  00019940701   0000579514 
NO ACCT FOR CERT 9000000MN0001039400  00019940701   0000579519 
NO ACCT FOR CERT 9000000MN0001039400  00019940705   0000579511 
NO ACCT FOR CERT 9000000MN0001039400  00019940705   0000579515 
NO ACCT FOR CERT 9000000MN0001039400  00019940706   0000579512 
NO ACCT FOR CERT 9000000MN0001039400  00019940708   0000579521 
NO ACCT FOR CERT 9000000MN0001039400  00019940708   0000579522 
NO ACCT FOR CERT 9000000MN0001039400  00019940708   0000579523 
NO ACCT FOR CERT 9000000MN0001039400  00019940711   0000579524 
NO ACCT FOR CERT 9000000MN0001039400  00019940711   0000579525 
NO ACCT FOR CERT 9000000MN0001039400  00019940712   0000579526 
NO ACCT FOR CERT 9000000MN0001039400  00019940712   0000579527 
NO ACCT FOR CERT 9000000MN0001039400  00019940714   0000579528 
NO ACCT FOR CERT 9000000MN0001039400  00019940714   0000579529 
NO ACCT FOR CERT 9000000MN0001039400  00019940714   0000579530 
NO ACCT FOR CERT 9000000MN0001039400  00019940718   0000579531 
NO ACCT FOR CERT 9000000MN0001039400  00019940719   0000579532 
NO ACCT FOR CERT 9000000MN0001039400  00019940720   0000579533 
NO ACCT FOR CERT 9000000MN0001039400  00019940720   0000579534 
NO ACCT FOR CERT 9000000MN0001039400  00019940720   0000579537 
NO ACCT FOR CERT 9000000MN0001039400  00019940721   0000579535 
NO ACCT FOR CERT 9000000MN0001039400  00019940721   0000579536 
NO ACCT FOR CERT 9000000MN0001039400  00019940721   0000579539 
NO ACCT FOR CERT 9000000MN0001039400  00019940721   0000579540 
NO ACCT FOR CERT 9000000MN0001039400  00019940721   0000579541 
NO ACCT FOR CERT 9000000MN0001039400  00019940721   0000579542 
NO ACCT FOR CERT 9000000MN0001039400  00019940722   0000579543 
NO ACCT FOR CERT 9000000MN0001039400  00019940725   0000579544 
NO ACCT FOR CERT 9000000MN0001039400  00019940725   0000579545 
NO ACCT FOR CERT 9000000MN0001039400  00019940725   0000579546 
NO ACCT FOR CERT 9000000MN0001039400  00019940725   0000579547 
NO ACCT FOR CERT 9000000MN0001039400  00019940727   0000579548 
NO ACCT FOR CERT 9000000MN0001039400  00019940728   0000579549 
NO ACCT FOR CERT 9000000MN0001039400  00019940728   0000579550 
NO ACCT FOR CERT 9000000MN0001039400  00019940728   0000579551 
NO ACCT FOR CERT 9000000MN0001039400  00019940728   0000579552 
NO ACCT FOR CERT 9000000MN0001039400  00019940802   0000579553 
NO ACCT FOR CERT 9000000MN0001039400  00019940803   0000579554 
NO ACCT FOR CERT 9000000MN0001039400  00019940804   0000579555 
NO ACCT FOR CERT 9000000MN0001039400  00019940805   0000579556 
NO ACCT FOR CERT 9000000MN0001039400  00019940808   0000579557 
NO ACCT FOR CERT 9000000MN0001039400  00019940808   0000579558 
NO ACCT FOR CERT 9000000MN0001039400  00019940809   0000579559 
NO ACCT FOR CERT 9000000MN0001039400  00019940809   0000579560 
NO ACCT FOR CERT 9000000MN0001039400  00019940809   0000579561 
NO ACCT FOR CERT 9000000MN0001039400  00019940809   0000579562 
NO ACCT FOR CERT 9000000MN0001039400  00019940809   0000579566 
NO ACCT FOR CERT 9000000MN0001039400  00019940810   0000579563 
NO ACCT FOR CERT 9000000MN0001039400  00019940810   0000579564 
NO ACCT FOR CERT 9000000MN0001039400  00019940810   0000579589 
NO ACCT FOR CERT 9000000MN0001039400  00019940811   0000579565 
NO ACCT FOR CERT 9000000MN0001039400  00019940811   0000579568 
NO ACCT FOR CERT 9000000MN0001039400  00019940811   0000579569 
NO ACCT FOR CERT 9000000MN0001039400  00019940812   0000579570 
NO ACCT FOR CERT 9000000MN0001039400  00019940815   0000579571 
NO ACCT FOR CERT 9000000MN0001039400  00019940815   0000579572 
NO ACCT FOR CERT 9000000MN0001039400  00019940815   0000579573 
NO ACCT FOR CERT 9000000MN0001039400  00019940816   0000579574 
NO ACCT FOR CERT 9000000MN0001039400  00019940816   0000579575 
NO ACCT FOR CERT 9000000MN0001039400  00019940817   0000579576 
NO ACCT FOR CERT 9000000MN0001039400  00019940818   0000579577 
NO ACCT FOR CERT 9000000MN0001039400  00019940818   0000579578 
NO ACCT FOR CERT 9000000MN0001039400  00019940819   0000579579 
NO ACCT FOR CERT 9000000MN0001039400  00019940822   0000579580 
NO ACCT FOR CERT 9000000MN0001039400  00019940822   0000579581 
NO ACCT FOR CERT 9000000MN0001039400  00019940823   0000579582 
NO ACCT FOR CERT 9000000MN0001039400  00019940823   0000579583 
NO ACCT FOR CERT 9000000MN0001039400  00019940823   0000579584 
NO ACCT FOR CERT 9000000MN0001039400  00019940824   0000579585 
NO ACCT FOR CERT 9000000MN0001039400  00019940824   0000579586 
NO ACCT FOR CERT 9000000MN0001039400  00019940824   0000579587 
NO ACCT FOR CERT 9000000MN0001039400  00019940824   0000579590 
NO ACCT FOR CERT 9000000MN0001039400  00019940825   0000579588 
NO ACCT FOR CERT 9000000MN0001039400  00019940825   0000579591 
NO ACCT FOR CERT 9000000MN0001039400  00019940826   0000579592 
NO ACCT FOR CERT 9000000MN0001039400  00019940826   0000579593 
NO ACCT FOR CERT 9000000MN0001039400  00019940826   0000579594 
NO ACCT FOR CERT 9000000MN0001039400  00019940826   0000579595 
NO ACCT FOR CERT 9000000MN0001039400  00019940830   0000579596 
NO ACCT FOR CERT 9000000MN0001039400  00019940830   0000579597 
NO ACCT FOR CERT 9000000MN0001039400  00019940901   0000579598 
NO ACCT FOR CERT 9000000MN0001039400  00019940901   0000579599 
NO ACCT FOR CERT 9000000MN0001039400  00019940901   0000579600 
NO ACCT FOR CERT 9000000MN0001039400  00019940901   0000579601 
NO ACCT FOR CERT 9000000MN0001039400  00019940901   0000579602 
NO ACCT FOR CERT 9000000MN0001039400  00019940901   0000579603 
NO ACCT FOR CERT 9000000MN0001039400  00019940901   0000579604 
NO ACCT FOR CERT 9000000MN0001039400  00019940901   0000579605 
NO ACCT FOR CERT 9000000MN0001039400  00019940902   0000579606 
NO ACCT FOR CERT 9000000MN0001039400  00019940906   0000579607 
NO ACCT FOR CERT 9000000MN0001039400  00019940909   0000579608 
NO ACCT FOR CERT 9000000MN0001039400  00019940909   0000579609 
NO ACCT FOR CERT 9000000MN0001039400  00019940912   0000579610 
NO ACCT FOR CERT 9000000MN0001039400  00019940912   0000579611 
NO ACCT FOR CERT 9000000MN0001039400  00019940913   0000579612 
NO ACCT FOR CERT 9000000MN0001039400  00019940913   0000579613 
NO ACCT FOR CERT 9000000MN0001039400  00019940914   0000579614 
NO ACCT FOR CERT 9000000MN0001039400  00019940914   0000579615 
NO ACCT FOR CERT 9000000MN0001039400  00019940915   0000579616 
NO ACCT FOR CERT 9000000MN0001039400  00019940915   0000579617 
NO ACCT FOR CERT 9000000MN0001039400  00019940915   0000579618 
NO ACCT FOR CERT 9000000MN0001039400  00019940919   0000579619 
NO ACCT FOR CERT 9000000MN0001039400  00019940919   0000579620 
NO ACCT FOR CERT 9000000MN0001039400  00019940919   0000579621 
NO ACCT FOR CERT 9000000MN0001039400  00019940920   0000579622 
NO ACCT FOR CERT 9000000MN0001039400  00019940920   0000579623 
NO ACCT FOR CERT 9000000MN0001039400  00019940921   0000579624 
NO ACCT FOR CERT 9000000MN0001039400  00019940921   0000579625 
NO ACCT FOR CERT 9000000MN0001039400  00019940921   0000579626 
NO ACCT FOR CERT 9000000MN0001039400  00019940921   0000579627 
NO ACCT FOR CERT 9000000MN0001039400  00019940923   0000579629 
NO ACCT FOR CERT 9000000MN0001039400  00019940923   0000579640 
NO ACCT FOR CERT 9000000MN0001039400  00019940926   0000579630 
NO ACCT FOR CERT 9000000MN0001039400  00019940926   0000579631 
NO ACCT FOR CERT 9000000MN0001039400  00019940926   0000579632 
NO ACCT FOR CERT 9000000MN0001039400  00019940927   0000579633 
NO ACCT FOR CERT 9000000MN0001039400  00019940927   0000579634 
NO ACCT FOR CERT 9000000MN0001039400  00019940928   0000579635 
NO ACCT FOR CERT 9000000MN0001039400  00019940928   0000579636 
NO ACCT FOR CERT 9000000MN0001039400  00019940929   0000579637 
NO ACCT FOR CERT 9000000MN0001039400  00019940930   0000579638 
NO ACCT FOR CERT 9000000MN0001039400  00019941003   0000579639 
NO ACCT FOR CERT 9000000MN0001039400  00019941005   0000579641 
NO ACCT FOR CERT 9000000MN0001039400  00019941007   0000579642 
NO ACCT FOR CERT 9000000MN0001039400  00019941007   0000579643 
NO ACCT FOR CERT 9000000MN0001039400  00019941007   0000579644 
NO ACCT FOR CERT 9000000MN0001039400  00019941007   0000579645 
NO ACCT FOR CERT 9000000MN0001039400  00019941007   0000579647 
NO ACCT FOR CERT 9000000MN0001039400  00019941011   0000579646 
NO ACCT FOR CERT 9000000MN0001039400  00019941013   0000579648 
NO ACCT FOR CERT 9000000MN0001039400  00019941013   0000579649 
NO ACCT FOR CERT 9000000MN0001039400  00019941014   0000579650 
NO ACCT FOR CERT 9000000MN0001039400  00019941018   0000579651 
NO ACCT FOR CERT 9000000MN0001039400  00019941018   0000579652 
NO ACCT FOR CERT 9000000MN0001039400  00019941020   0000579653 
NO ACCT FOR CERT 9000000MN0001039400  00019941020   0000579654 
NO ACCT FOR CERT 9000000MN0001039400  00019941024   0000579655 
NO ACCT FOR CERT 9000000MN0001039400  00019941024   0000579656 
NO ACCT FOR CERT 9000000MN0001039400  00019941025   0000579657 
NO ACCT FOR CERT 9000000MN0001039400  00019941025   0000579658 
NO ACCT FOR CERT 9000000MN0001039400  00019941027   0000579660 
NO ACCT FOR CERT 9000000MN0001039400  00019941027   0000579662 
NO ACCT FOR CERT 9000000MN0001039400  00019941027   0000579663 
NO ACCT FOR CERT 9000000MN0001039400  00019941027   0000584329 
NO ACCT FOR CERT 9000000MN0001039400  00019941028   0000579664 
NO ACCT FOR CERT 9000000MN0001039400  00019941028   0000584350 
NO ACCT FOR CERT 9000000MN0001039400  00019941031   0000579665 
NO ACCT FOR CERT 9000000MN0001039400  00019941031   0000579666 
NO ACCT FOR CERT 9000000MN0001039400  00019941031   0000579667 
NO ACCT FOR CERT 9000000MN0001039400  00019941031   0000579668 
NO ACCT FOR CERT 9000000MN0001039400  00019941031   0000579669 
NO ACCT FOR CERT 9000000MN0001039400  00019941031   0000579670 
NO ACCT FOR CERT 9000000MN0001039400  00019941102   0000579671 
NO ACCT FOR CERT 9000000MN0001039400  00019941104   0000579672 
NO ACCT FOR CERT 9000000MN0001039400  00019941104   0000579673 
NO ACCT FOR CERT 9000000MN0001039400  00019941104   0000579674 
NO ACCT FOR CERT 9000000MN0001039400  00019941104   0000579675 
NO ACCT FOR CERT 9000000MN0001039400  00019941107   0000579676 
NO ACCT FOR CERT 9000000MN0001039400  00019941109   0000579677 
NO ACCT FOR CERT 9000000MN0001039400  00019941109   0000579678 
NO ACCT FOR CERT 9000000MN0001039400  00019941109   0000579680 
NO ACCT FOR CERT 9000000MN0001039400  00019941110   0000579679 
NO ACCT FOR CERT 9000000MN0001039400  00019941110   0000579681 
NO ACCT FOR CERT 9000000MN0001039400  00019941111   0000579682 
NO ACCT FOR CERT 9000000MN0001039400  00019941114   0000579683 
NO ACCT FOR CERT 9000000MN0001039400  00019941114   0000579684 
NO ACCT FOR CERT 9000000MN0001039400  00019941114   0000579685 
NO ACCT FOR CERT 9000000MN0001039400  00019941115   0000579686 
NO ACCT FOR CERT 9000000MN0001039400  00019941116   0000579687 
NO ACCT FOR CERT 9000000MN0001039400  00019941117   0000579688 
NO ACCT FOR CERT 9000000MN0001039400  00019941117   0000579689 
NO ACCT FOR CERT 9000000MN0001039400  00019941118   0000579690 
NO ACCT FOR CERT 9000000MN0001039400  00019941118   0000579691 
NO ACCT FOR CERT 9000000MN0001039400  00019941118   0000579692 
NO ACCT FOR CERT 9000000MN0001039400  00019941121   0000579693 
NO ACCT FOR CERT 9000000MN0001039400  00019941121   0000579694 
NO ACCT FOR CERT 9000000MN0001039400  00019941121   0000579696 
NO ACCT FOR CERT 9000000MN0001039400  00019941121   0000579697 
NO ACCT FOR CERT 9000000MN0001039400  00019941122   0000579695 
NO ACCT FOR CERT 9000000MN0001039400  00019941123   0000579698 
NO ACCT FOR CERT 9000000MN0001039400  00019941123   0000584351 
NO ACCT FOR CERT 9000000MN0001039400  00019941125   0000579699 
NO ACCT FOR CERT 9000000MN0001039400  00019941125   0000579700 
NO ACCT FOR CERT 9000000MN0001039400  00019941125   0000579701 
NO ACCT FOR CERT 9000000MN0001039400  00019941128   0000584401 
NO ACCT FOR CERT 9000000MN0001039400  00019941128   0000584402 
NO ACCT FOR CERT 9000000MN0001039400  00019941128   0000584403 
NO ACCT FOR CERT 9000000MN0001039400  00019941128   0000584404 
NO ACCT FOR CERT 9000000MN0001039400  00019941128   0000584405 
NO ACCT FOR CERT 9000000MN0001039400  00019941128   0000584409 
NO ACCT FOR CERT 9000000MN0001039400  00019941129   0000584406 
NO ACCT FOR CERT 9000000MN0001039400  00019941129   0000584407 
NO ACCT FOR CERT 9000000MN0001039400  00019941129   0000584408 
NO ACCT FOR CERT 9000000MN0001039400  00019941201   0000584410 
NO ACCT FOR CERT 9000000MN0001039400  00019941201   0000584411 
NO ACCT FOR CERT 9000000MN0001039400  00019941201   0000584412 
NO ACCT FOR CERT 9000000MN0001039400  00019941202   0000584313 
NO ACCT FOR CERT 9000000MN0001039400  00019941202   0000584314 
NO ACCT FOR CERT 9000000MN0001039400  00019941202   0000584315 
NO ACCT FOR CERT 9000000MN0001039400  00019941202   0000584316 
NO ACCT FOR CERT 9000000MN0001039400  00019941202   0000584317 
NO ACCT FOR CERT 9000000MN0001039400  00019941202   0000584318 
NO ACCT FOR CERT 9000000MN0001039400  00019941205   0000584319 
NO ACCT FOR CERT 9000000MN0001039400  00019941205   0000584320 
NO ACCT FOR CERT 9000000MN0001039400  00019941206   0000584330 
NO ACCT FOR CERT 9000000MN0001039400  00019941208   0000584321 
NO ACCT FOR CERT 9000000MN0001039400  00019941209   0000584322 
NO ACCT FOR CERT 9000000MN0001039400  00019941212   0000584323 
NO ACCT FOR CERT 9000000MN0001039400  00019941212   0000584324 
NO ACCT FOR CERT 9000000MN0001039400  00019941212   0000584325 
NO ACCT FOR CERT 9000000MN0001039400  00019941212   0000584326 
NO ACCT FOR CERT 9000000MN0001039400  00019941213   0000584327 
NO ACCT FOR CERT 9000000MN0001039400  00019941213   0000584331 
NO ACCT FOR CERT 9000000MN0001039400  00019941214   0000584349 
NO ACCT FOR CERT 9000000MN0001039400  00019941215   0000584328 
NO ACCT FOR CERT 9000000MN0001039400  00019941219   0000584332 
NO ACCT FOR CERT 9000000MN0001039400  00019941219   0000584333 
NO ACCT FOR CERT 9000000MN0001039400  00019941219   0000584334 
NO ACCT FOR CERT 9000000MN0001039400  00019941220   0000584335 
NO ACCT FOR CERT 9000000MN0001039400  00019941221   0000584336 
NO ACCT FOR CERT 9000000MN0001039400  00019941222   0000584337 
NO ACCT FOR CERT 9000000MN0001039400  00019941222   0000584340 
NO ACCT FOR CERT 9000000MN0001039400  00019941228   0000584338 
NO ACCT FOR CERT 9000000MN0001039400  00019941229   0000584339 
NO ACCT FOR CERT 9000000MN0001039400  00019941229   0000584341 
NO ACCT FOR CERT 9000000MN0001039400  00019941230   0000584344 
NO ACCT FOR CERT 9000000MN0001039400  00019950103   0000584342 
NO ACCT FOR CERT 9000000MN0001039400  00019950105   0000584343 
NO ACCT FOR CERT 9000000MN0001039400  00019950109   0000584345 
NO ACCT FOR CERT 9000000MN0001039400  00019950109   0000584346 
NO ACCT FOR CERT 9000000MN0001039400  00019950111   0000584347 
NO ACCT FOR CERT 9000000MN0001039400  00019950111   0000584348 
NO ACCT FOR CERT 9000000MN0001039400  00019950111   0000584352 
NO ACCT FOR CERT 9000000MN0001039400  00019950112   0000584353 
NO ACCT FOR CERT 9000000MN0001039400  00019950113   0000584354 
NO ACCT FOR CERT 9000000MN0001039400  00019950113   0000584355 
NO ACCT FOR CERT 9000000MN0001039400  00019950118   0000584357 
NO ACCT FOR CERT 9000000MN0001039400  00019950118   0000584358 
NO ACCT FOR CERT 9000000MN0001039400  00019950119   0000584359 
NO ACCT FOR CERT 9000000MN0001039400  00019950120   0000584360 
NO ACCT FOR CERT 9000000MN0001039400  00019950120   0000584361 
NO ACCT FOR CERT 9000000MN0001039400  00019950120   0000584362 
NO ACCT FOR CERT 9000000MN0001039400  00019950120   0000584373 
NO ACCT FOR CERT 9000000MN0001039400  00019950123   0000584363 
NO ACCT FOR CERT 9000000MN0001039400  00019950123   0000584377 
NO ACCT FOR CERT 9000000MN0001039400  00019950125   0000584364 
NO ACCT FOR CERT 9000000MN0001039400  00019950125   0000584365 
NO ACCT FOR CERT 9000000MN0001039400  00019950126   0000584366 
NO ACCT FOR CERT 9000000MN0001039400  00019950126   0000584368 
NO ACCT FOR CERT 9000000MN0001039400  00019950126   0000584372 
NO ACCT FOR CERT 9000000MN0001039400  00019950130   0000584369 
NO ACCT FOR CERT 9000000MN0001039400  00019950130   0000584370 
NO ACCT FOR CERT 9000000MN0001039400  00019950131   0000584371 
NO ACCT FOR CERT 9000000MN0001039400  00019950202   0000584374 
NO ACCT FOR CERT 9000000MN0001039400  00019950206   0000584375 
NO ACCT FOR CERT 9000000MN0001039400  00019950206   0000584382 
NO ACCT FOR CERT 9000000MN0001039400  00019950207   0000584376 
NO ACCT FOR CERT 9000000MN0001039400  00019950207   0000584378 
NO ACCT FOR CERT 9000000MN0001039400  00019950207   0000584383 
NO ACCT FOR CERT 9000000MN0001039400  00019950208   0000584379 
NO ACCT FOR CERT 9000000MN0001039400  00019950208   0000584380 
NO ACCT FOR CERT 9000000MN0001039400  00019950208   0000584415 
NO ACCT FOR CERT 9000000MN0001039400  00019950209   0000584384 
NO ACCT FOR CERT 9000000MN0001039400  00019950209   0000584385 
NO ACCT FOR CERT 9000000MN0001039400  00019950210   0000584386 
NO ACCT FOR CERT 9000000MN0001039400  00019950210   0000584387 
NO ACCT FOR CERT 9000000MN0001039400  00019950213   0000584388 
NO ACCT FOR CERT 9000000MN0001039400  00019950213   0000584390 
NO ACCT FOR CERT 9000000MN0001039400  00019950214   0000584391 
NO ACCT FOR CERT 9000000MN0001039400  00019950215   0000584393 
NO ACCT FOR CERT 9000000MN0001039400  00019950220   0000584394 
NO ACCT FOR CERT 9000000MN0001039400  00019950220   0000584395 
NO ACCT FOR CERT 9000000MN0001039400  00019950221   0000584396 
NO ACCT FOR CERT 9000000MN0001039400  00019950223   0000584397 
NO ACCT FOR CERT 9000000MN0001039400  00019950223   0000584398 
NO ACCT FOR CERT 9000000MN0001039400  00019950223   0000584399 
NO ACCT FOR CERT 9000000MN0001039400  00019950223   0000584442 
NO ACCT FOR CERT 9000000MN0001039400  00019950224   0000584400 
NO ACCT FOR CERT 9000000MN0001039400  00019950224   0000584413 
NO ACCT FOR CERT 9000000MN0001039400  00019950228   0000584414 
NO ACCT FOR CERT 9000000MN0001039400  00019950301   0000584416 
NO ACCT FOR CERT 9000000MN0001039400  00019950302   0000584417 
NO ACCT FOR CERT 9000000MN0001039400  00019950302   0000584479 
NO ACCT FOR CERT 9000000MN0001039400  00019950306   0000584418 
NO ACCT FOR CERT 9000000MN0001039400  00019950307   0000584420 
NO ACCT FOR CERT 9000000MN0001039400  00019950309   0000584419 
NO ACCT FOR CERT 9000000MN0001039400  00019950309   0000584421 
NO ACCT FOR CERT 9000000MN0001039400  00019950309   0000584422 
NO ACCT FOR CERT 9000000MN0001039400  00019950309   0000584423 
NO ACCT FOR CERT 9000000MN0001039400  00019950313   0000584424 
NO ACCT FOR CERT 9000000MN0001039400  00019950314   0000584425 
NO ACCT FOR CERT 9000000MN0001039400  00019950314   0000584426 
NO ACCT FOR CERT 9000000MN0001039400  00019950314   0000584427 
NO ACCT FOR CERT 9000000MN0001039400  00019950315   0000584428 
NO ACCT FOR CERT 9000000MN0001039400  00019950315   0000584429 
NO ACCT FOR CERT 9000000MN0001039400  00019950315   0000584430 
NO ACCT FOR CERT 9000000MN0001039400  00019950315   0000584480 
NO ACCT FOR CERT 9000000MN0001039400  00019950316   0000584431 
NO ACCT FOR CERT 9000000MN0001039400  00019950317   0000584432 
NO ACCT FOR CERT 9000000MN0001039400  00019950317   0000584433 
NO ACCT FOR CERT 9000000MN0001039400  00019950317   0000584434 
NO ACCT FOR CERT 9000000MN0001039400  00019950317   0000584435 
NO ACCT FOR CERT 9000000MN0001039400  00019950320   0000584437 
NO ACCT FOR CERT 9000000MN0001039400  00019950320   0000584438 
NO ACCT FOR CERT 9000000MN0001039400  00019950320   0000584439 
NO ACCT FOR CERT 9000000MN0001039400  00019950320   0000584440 
NO ACCT FOR CERT 9000000MN0001039400  00019950322   0000584441 
NO ACCT FOR CERT 9000000MN0001039400  00019950323   0000584491 
NO ACCT FOR CERT 9000000MN0001039400  00019950324   0000584443 
NO ACCT FOR CERT 9000000MN0001039400  00019950327   0000584444 
NO ACCT FOR CERT 9000000MN0001039400  00019950327   0000584445 
NO ACCT FOR CERT 9000000MN0001039400  00019950327   0000584446 
NO ACCT FOR CERT 9000000MN0001039400  00019950327   0000584447 
NO ACCT FOR CERT 9000000MN0001039400  00019950327   0000584448 
NO ACCT FOR CERT 9000000MN0001039400  00019950328   0000584449 
NO ACCT FOR CERT 9000000MN0001039400  00019950328   0000584450 
NO ACCT FOR CERT 9000000MN0001039400  00019950328   0000584451 
NO ACCT FOR CERT 9000000MN0001039400  00019950329   0000584452 
NO ACCT FOR CERT 9000000MN0001039400  00019950329   0000584453 
NO ACCT FOR CERT 9000000MN0001039400  00019950329   0000584456 
NO ACCT FOR CERT 9000000MN0001039400  00019950330   0000584454 
NO ACCT FOR CERT 9000000MN0001039400  00019950330   0000584455 
NO ACCT FOR CERT 9000000MN0001039400  00019950330   0000584457 
NO ACCT FOR CERT 9000000MN0001039400  00019950331   0000584458 
NO ACCT FOR CERT 9000000MN0001039400  00019950331   0000584459 
NO ACCT FOR CERT 9000000MN0001039400  00019950331   0000584460 
NO ACCT FOR CERT 9000000MN0001039400  00019950403   0000584461 
NO ACCT FOR CERT 9000000MN0001039400  00019950403   0000584462 
NO ACCT FOR CERT 9000000MN0001039400  00019950403   0000584463 
NO ACCT FOR CERT 9000000MN0001039400  00019950403   0000584464 
NO ACCT FOR CERT 9000000MN0001039400  00019950404   0000584465 
NO ACCT FOR CERT 9000000MN0001039400  00019950405   0000584466 
NO ACCT FOR CERT 9000000MN0001039400  00019950405   0000584467 
NO ACCT FOR CERT 9000000MN0001039400  00019950405   0000584469 
NO ACCT FOR CERT 9000000MN0001039400  00019950405   0000584470 
NO ACCT FOR CERT 9000000MN0001039400  00019950407   0000584471 
NO ACCT FOR CERT 9000000MN0001039400  00019950407   0000584472 
NO ACCT FOR CERT 9000000MN0001039400  00019950410   0000584474 
NO ACCT FOR CERT 9000000MN0001039400  00019950411   0000584475 
NO ACCT FOR CERT 9000000MN0001039400  00019950411   0000584476 
NO ACCT FOR CERT 9000000MN0001039400  00019950412   0000584477 
NO ACCT FOR CERT 9000000MN0001039400  00019950413   0000584478 
NO ACCT FOR CERT 9000000MN0001039400  00019950413   0000584481 
NO ACCT FOR CERT 9000000MN0001039400  00019950413   0000584482 
NO ACCT FOR CERT 9000000MN0001039400  00019950414   0000584483 
NO ACCT FOR CERT 9000000MN0001039400  00019950417   0000584484 
NO ACCT FOR CERT 9000000MN0001039400  00019950417   0000584485 
NO ACCT FOR CERT 9000000MN0001039400  00019950418   0000584486 
NO ACCT FOR CERT 9000000MN0001039400  00019950418   0000584487 
NO ACCT FOR CERT 9000000MN0001039400  00019950419   0000584488 
NO ACCT FOR CERT 9000000MN0001039400  00019950419   0000584489 
NO ACCT FOR CERT 9000000MN0001039400  00019950420   0000584490 
NO ACCT FOR CERT 9000000MN0001039400  00019950420   0000584492 
NO ACCT FOR CERT 9000000MN0001039400  00019950424   0000584493 
NO ACCT FOR CERT 9000000MN0001039400  00019950425   0000584494 
NO ACCT FOR CERT 9000000MN0001039400  00019950425   0000584495 
NO ACCT FOR CERT 9000000MN0001039400  00019950426   0000584496 
NO ACCT FOR CERT 9000000MN0001039400  00019950426   0000584497 
NO ACCT FOR CERT 9000000MN0001039400  00019950426   0000584498 
NO ACCT FOR CERT 9000000MN0001039400  00019950426   0000584499 
NO ACCT FOR CERT 9000000MN0001039400  00019950428   0000584500 
NO ACCT FOR CERT 9000000MN0001039400  00019950501   0000584501 
NO ACCT FOR CERT 9000000MN0001039400  00019950501   0000584502 
NO ACCT FOR CERT 9000000MN0001039400  00019950501   0000584503 
NO ACCT FOR CERT 9000000MN0001039400  00019950502   0000584504 
NO ACCT FOR CERT 9000000MN0001039400  00019950503   0000584507 
NO ACCT FOR CERT 9000000MN0001039400  00019950504   0000584505 
NO ACCT FOR CERT 9000000MN0001039400  00019950504   0000584506 
NO ACCT FOR CERT 9000000MN0001039400  00019950504   0000584508 
NO ACCT FOR CERT 9000000MN0001039400  00019950505   0000584509 
NO ACCT FOR CERT 9000000MN0001039400  00019950505   0000584510 
NO ACCT FOR CERT 9000000MN0001039400  00019950505   0000584511 
NO ACCT FOR CERT 9000000MN0001039400  00019950508   0000584512 
NO ACCT FOR CERT 9000000MN0001039400  00019950508   0000587682 
NO ACCT FOR CERT 9000000MN0001039400  00019950509   0000587683 
NO ACCT FOR CERT 9000000MN0001039400  00019950510   0000587684 
NO ACCT FOR CERT 9000000MN0001039400  00019950511   0000588426 
NO ACCT FOR CERT 9000000MN0001039400  00019950512   0000588634 
NO ACCT FOR CERT 9000000MN0001039400  00019950512   0000588635 
 NO ACCT FOR CERT  9000000MN0001048600  00019941019   0000580341 
 NO ACCT FOR CERT  9000000MN0001048600  00019941031   0000104138 
 NO ACCT FOR CERT  9000000MN0001048600  00019941031   0000580379 
 NO ACCT FOR CERT  9000000MN0001048600  00019941103   0000580343 
 NO ACCT FOR CERT  9000000MN0001048600  00019941103   0000580345 
 NO ACCT FOR CERT  9000000MN0001048600  00019941104   0000104319 
 NO ACCT FOR CERT  9000000MN0001048600  00019941104   0000580344 
 NO ACCT FOR CERT  9000000MN0001048600  00019941107   0000580347 
 NO ACCT FOR CERT  9000000MN0001048600  00019941109   0000580348 
 NO ACCT FOR CERT  9000000MN0001048600  00019941118   0000580350 
 NO ACCT FOR CERT  9000000MN0001048600  00019941118   0000580351 
 NO ACCT FOR CERT  9000000MN0001048600  00019941118   0000580352 
 NO ACCT FOR CERT  9000000MN0001048600  00019941120   0000580349 
 NO ACCT FOR CERT  9000000MN0001048600  00019941201   0000580342 
 NO ACCT FOR CERT  9000000MN0001048600  00019941202   0000580353 
 NO ACCT FOR CERT  9000000MN0001048600  00019941205   0000580355 
 NO ACCT FOR CERT  9000000MN0001048600  00019941206   0000580357 
 NO ACCT FOR CERT  9000000MN0001048600  00019941208   0000580358 
 NO ACCT FOR CERT  9000000MN0001048600  00019941208   0000580359 
 NO ACCT FOR CERT  9000000MN0001048600  00019941208   0000580363 
 NO ACCT FOR CERT  9000000MN0001048600  00019941213   0000580360 
 NO ACCT FOR CERT  9000000MN0001048600  00019941214   0000580361 
 NO ACCT FOR CERT  9000000MN0001048600  00019941216   0000580362 
 NO ACCT FOR CERT  9000000MN0001048600  00019941219   0000580364 
 NO ACCT FOR CERT  9000000MN0001048600  00019941219   0000580365 
 NO ACCT FOR CERT  9000000MN0001048600  00019941219   0000580366 
 NO ACCT FOR CERT  9000000MN0001048600  00019941220   0000580367 
 NO ACCT FOR CERT  9000000MN0001048600  00019941223   0000580368 
 NO ACCT FOR CERT  9000000MN0001048600  00019941223   0000580369 
 NO ACCT FOR CERT  9000000MN0001048600  00019941227   0000580370 
 NO ACCT FOR CERT  9000000MN0001048600  00019941228   0000580371 
 NO ACCT FOR CERT  9000000MN0001048600  00019941230   0000580372 
 NO ACCT FOR CERT  9000000MN0001048600  00019950103   0000580373 
 NO ACCT FOR CERT  9000000MN0001048600  00019950104   0000580374 
 NO ACCT FOR CERT  9000000MN0001048600  00019950104   0000580375 
 NO ACCT FOR CERT  9000000MN0001048600  00019950104   0000580376 
 NO ACCT FOR CERT  9000000MN0001048600  00019950106   0000580377 
 NO ACCT FOR CERT  9000000MN0001048600  00019950109   0000580378 
 NO ACCT FOR CERT  9000000MN0001048600  00019950109   0000580380 
 NO ACCT FOR CERT  9000000MN0001048600  00019950111   0000580384 
 NO ACCT FOR CERT  9000000MN0001048600  00019950111   0000580385 
 NO ACCT FOR CERT  9000000MN0001048600  00019950118   0000580386 
 NO ACCT FOR CERT  9000000MN0001048600  00019950120   0000580387 
 NO ACCT FOR CERT  9000000MN0001048600  00019950123   0000580388 
 NO ACCT FOR CERT  9000000MN0001048600  00019950126   0000580389 
 NO ACCT FOR CERT  9000000MN0001048600  00019950127   0000580390 
 NO ACCT FOR CERT  9000000MN0001048600  00019950127   0000580391 
 NO ACCT FOR CERT  9000000MN0001048600  00019950131   0000580392 
 NO ACCT FOR CERT  9000000MN0001048600  00019950201   0000580393 
 NO ACCT FOR CERT  9000000MN0001048600  00019950209   0000580394 
 NO ACCT FOR CERT  9000000MN0001048600  00019950215   0000105379 
 NO ACCT FOR CERT  9000000MN0001048600  00019950217   0000580395 
 NO ACCT FOR CERT  9000000MN0001048600  00019950224   0000105380 
 NO ACCT FOR CERT  9000000MN0001048600  00019950227   0000580396 
 NO ACCT FOR CERT  9000000MN0001048600  00019950228   0000580397 
 NO ACCT FOR CERT  9000000MN0001048600  00019950303   0000580398 
 NO ACCT FOR CERT  9000000MN0001048600  00019950303   0000580399 
 NO ACCT FOR CERT  9000000MN0001048600  00019950307   0000580400 
 NO ACCT FOR CERT  9000000MN0001048600  00019950309   0000586919 
 NO ACCT FOR CERT  9000000MN0001048600  00019950316   0000586920 
 NO ACCT FOR CERT  9000000MN0001048600  00019950322   0000586921 
 NO ACCT FOR CERT  9000000MN0001048600  00019950327   0000586922 
 NO ACCT FOR CERT  9000000MN0001048600  00019950328   0000586923 
 NO ACCT FOR CERT  9000000MN0001048600  00019950330   0000586924 
 NO ACCT FOR CERT  9000000MN0001048600  00019950331   0000586925 
 NO ACCT FOR CERT  9000000MN0001048600  00019950331   0000586926 
 NO ACCT FOR CERT  9000000MN0001048600  00019950406   0000586927 
 NO ACCT FOR CERT  9000000MN0001048600  00019950410   0000586928 
 NO ACCT FOR CERT  9000000MN0001048600  00019950413   0000586929 
 NO ACCT FOR CERT  9000000MN0001048600  00019950414   0000586930 
 NO ACCT FOR CERT  9000000MN0001048600  00019950418   0000586932 
 NO ACCT FOR CERT  9000000MN0001048600  00019950501   0000586933 
 NO ACCT FOR CERT  9000000MN0001048600  00019950501   0000586934 
 NO ACCT FOR CERT  9000000MN0001048600  00019950505   0000586936 
 NO ACCT FOR CERT  9000000MN0001048600  00019950508   0000586937 
 NO ACCT FOR CERT  9000000MN0001048600  00019950519   0000586938 
 NO ACCT FOR CERT  9000000MN0001048600  00019950519   0000586939 
 NO ACCT FOR CERT  9000000MN0001048600  00019950530   0000586940 
 NO ACCT FOR CERT  9000000MN0001048600  00019950531   0000586941 
 NO ACCT FOR CERT  9000000MN0001048600  00019950602   0000586942 
 NO ACCT FOR CERT  9000000MN0001048600  00019950605   0000586943 
 NO ACCT FOR CERT  9000000MN0001048600  00019950606   0000586944 
 NO ACCT FOR CERT  9000000MN0001048600  00019950608   0000586945 
 NO ACCT FOR CERT  9000000MN0001048600  00019950612   0000586946 
 NO ACCT FOR CERT  9000000MN0001048600  00019950612   0000586947 
 NO ACCT FOR CERT  9000000MN0001048600  00019950613   0000586948 
 NO ACCT FOR CERT  9000000MN0001048600  00019950619   0000586949 
 NO ACCT FOR CERT  9000000MN0001048600  00019950619   0000586950 
NO ACCT FOR CERT 9000000MN0001049000  00019881125   0000492150 
NO ACCT FOR CERT 9000000MN0001049000  00019900209   0000512145 
NO ACCT FOR CERT 9000000MN0001049000  00019900330   0000512153 
NO ACCT FOR CERT 9000000MN0001049000  00019900514   0000512164 
NO ACCT FOR CERT 9000000MN0001049000  00019900803   0000512175 
NO ACCT FOR CERT 9000000MN0001049000  00019900829   0000519803 
NO ACCT FOR CERT 9000000MN0001049000  00019900904   0000519807 
NO ACCT FOR CERT 9000000MN0001049000  00019900912   0000519810 
NO ACCT FOR CERT 9000000MN0001049000  00019901012   0000519816 
NO ACCT FOR CERT 9000000MN0001049000  00019910226   0000519833 
NO ACCT FOR CERT 9000000MN0001049000  00019910315   0000519836 
NO ACCT FOR CERT 9000000MN0001049000  00019910401   0000527672 
NO ACCT FOR CERT 9000000MN0001049000  00019910524   0000527682 
NO ACCT FOR CERT 9000000MN0001049000  00019910531   0000527683 
NO ACCT FOR CERT 9000000MN0001049000  00019910715   0000527690 
NO ACCT FOR CERT 9000000MN0001049000  00019910808   0000527691 
NO ACCT FOR CERT 9000000MN0001049000  00019910916   0000527692 
NO ACCT FOR CERT 9000000MN0001049000  00019911101   0000527694 
NO ACCT FOR CERT 9000000MN0001049000  00019911113   0000527697 
NO ACCT FOR CERT 9000000MN0001049000  00019911213   0000527705 
NO ACCT FOR CERT 9000000MN0001049000  00019911220   0000527706 
NO ACCT FOR CERT 9000000MN0001049000  00019920108   0000537712 
NO ACCT FOR CERT 9000000MN0001049000  00019920129   0000537714 
NO ACCT FOR CERT 9000000MN0001049000  00019920224   0000537715 
NO ACCT FOR CERT 9000000MN0001049000  00019920302   0000537718 
NO ACCT FOR CERT 9000000MN0001049000  00019920306   0000537719 
NO ACCT FOR CERT 9000000MN0001049000  00019920318   0000537720 
NO ACCT FOR CERT 9000000MN0001049000  00019920408   0000537721 
NO ACCT FOR CERT 9000000MN0001049000  00019920410   0000537722 
NO ACCT FOR CERT 9000000MN0001049000  00019920417   0000537723 
NO ACCT FOR CERT 9000000MN0001049000  00019920423   0000537726 
NO ACCT FOR CERT 9000000MN0001049000  00019920425   0000537724 
NO ACCT FOR CERT 9000000MN0001049000  00019920425   0000537725 
NO ACCT FOR CERT 9000000MN0001049000  00019920514   0000537727 
NO ACCT FOR CERT 9000000MN0001049000  00019920527   0000537728 
NO ACCT FOR CERT 9000000MN0001049000  00019920601   0000537729 
NO ACCT FOR CERT 9000000MN0001049000  00019920707   0000537731 
NO ACCT FOR CERT 9000000MN0001049000  00019920709   0000537733 
NO ACCT FOR CERT 9000000MN0001049000  00019920723   0000537735 
NO ACCT FOR CERT 9000000MN0001049000  00019920805   0000552526 
NO ACCT FOR CERT 9000000MN0001049000  00019920805   0000552527 
NO ACCT FOR CERT 9000000MN0001049000  00019920825   0000552528 
NO ACCT FOR CERT 9000000MN0001049000  00019920831   0000552529 
NO ACCT FOR CERT 9000000MN0001049000  00019920904   0000552530 
NO ACCT FOR CERT 9000000MN0001049000  00019920904   0000552531 
NO ACCT FOR CERT 9000000MN0001049000  00019920904   0000552532 
NO ACCT FOR CERT 9000000MN0001049000  00019920921   0000552533 
NO ACCT FOR CERT 9000000MN0001049000  00019921006   0000552534 
NO ACCT FOR CERT 9000000MN0001049000  00019921009   0000552535 
NO ACCT FOR CERT 9000000MN0001049000  00019921013   0000552536 
NO ACCT FOR CERT 9000000MN0001049000  00019921102   0000552537 
NO ACCT FOR CERT 9000000MN0001049000  00019921120   0000552539 
NO ACCT FOR CERT 9000000MN0001049000  00019921124   0000552540 
NO ACCT FOR CERT 9000000MN0001049000  00019921124   0000552541 
NO ACCT FOR CERT 9000000MN0001049000  00019921203   0000552538 
NO ACCT FOR CERT 9000000MN0001049000  00019921229   0000552542 
NO ACCT FOR CERT 9000000MN0001049000  00019921229   0000552543 
NO ACCT FOR CERT 9000000MN0001049000  00019921229   0000552544 
NO ACCT FOR CERT 9000000MN0001049000  00019921230   0000552545 
NO ACCT FOR CERT 9000000MN0001049000  00019921231   0000552546 
NO ACCT FOR CERT 9000000MN0001049000  00019930115   0000552547 
NO ACCT FOR CERT 9000000MN0001049000  00019930115   0000552548 
NO ACCT FOR CERT 9000000MN0001049000  00019930120   0000552549 
NO ACCT FOR CERT 9000000MN0001049000  00019930125   0000552550 
NO ACCT FOR CERT 9000000MN0001049000  00019930210   0000552551 
NO ACCT FOR CERT 9000000MN0001049000  00019930216   0000552552 
NO ACCT FOR CERT 9000000MN0001049000  00019930219   0000552553 
NO ACCT FOR CERT 9000000MN0001049000  00019930226   0000552554 
NO ACCT FOR CERT 9000000MN0001049000  00019930315   0000558702 
NO ACCT FOR CERT 9000000MN0001049000  00019930315   0000558703 
NO ACCT FOR CERT 9000000MN0001049000  00019930318   0000558701 
NO ACCT FOR CERT 9000000MN0001049000  00019930329   0000558704 
NO ACCT FOR CERT 9000000MN0001049000  00019930402   0000558705 
NO ACCT FOR CERT 9000000MN0001049000  00019930409   0000558706 
NO ACCT FOR CERT 9000000MN0001049000  00019930413   0000558707 
NO ACCT FOR CERT 9000000MN0001049000  00019930416   0000558708 
NO ACCT FOR CERT 9000000MN0001049000  00019930416   0000558709 
NO ACCT FOR CERT 9000000MN0001049000  00019930425   0000558710 
NO ACCT FOR CERT 9000000MN0001049000  00019930425   0000558711 
NO ACCT FOR CERT 9000000MN0001049000  00019930517   0000558712 
NO ACCT FOR CERT 9000000MN0001049000  00019930528   0000558713 
NO ACCT FOR CERT 9000000MN0001049000  00019930630   0000558714 
NO ACCT FOR CERT 9000000MN0001049000  00019930706   0000558715 
NO ACCT FOR CERT 9000000MN0001049000  00019930726   0000558716 
NO ACCT FOR CERT 9000000MN0001049000  00019930812   0000558717 
NO ACCT FOR CERT 9000000MN0001049000  00019930813   0000558719 
NO ACCT FOR CERT 9000000MN0001049000  00019930823   0000558720 
NO ACCT FOR CERT 9000000MN0001049000  00019930823   0000558721 
NO ACCT FOR CERT 9000000MN0001049000  00019930827   0000558722 
NO ACCT FOR CERT 9000000MN0001049000  00019930830   0000558723 
NO ACCT FOR CERT 9000000MN0001049000  00019930830   0000558724 
NO ACCT FOR CERT 9000000MN0001049000  00019930903   0000558725 
NO ACCT FOR CERT 9000000MN0001049000  00019930907   0000558726 
NO ACCT FOR CERT 9000000MN0001049000  00019930915   0000558727 
NO ACCT FOR CERT 9000000MN0001049000  00019930920   0000558728 
NO ACCT FOR CERT 9000000MN0001049000  00019930924   0000558729 
NO ACCT FOR CERT 9000000MN0001049000  00019930924   0000558730 
NO ACCT FOR CERT 9000000MN0001049000  00019930928   0000558731 
NO ACCT FOR CERT 9000000MN0001049000  00019931001   0000558732 
NO ACCT FOR CERT 9000000MN0001049000  00019931012   0000558733 
NO ACCT FOR CERT 9000000MN0001049000  00019931108   0000558734 
NO ACCT FOR CERT 9000000MN0001049000  00019931115   0000558735 
